{
  "contractName": "Crowdsale",
  "abi": [
    {
      "inputs": [
        {
          "internalType": "string",
          "name": "_title",
          "type": "string"
        },
        {
          "internalType": "string",
          "name": "_description",
          "type": "string"
        },
        {
          "internalType": "uint256",
          "name": "_targetAmount",
          "type": "uint256"
        },
        {
          "internalType": "uint256",
          "name": "_minimumContribution",
          "type": "uint256"
        },
        {
          "internalType": "address",
          "name": "_owner",
          "type": "address"
        },
        {
          "internalType": "contract TokenContract",
          "name": "_token",
          "type": "address"
        }
      ],
      "stateMutability": "nonpayable",
      "type": "constructor"
    },
    {
      "anonymous": false,
      "inputs": [
        {
          "indexed": false,
          "internalType": "address",
          "name": "_from",
          "type": "address"
        },
        {
          "indexed": false,
          "internalType": "uint256",
          "name": "_amount",
          "type": "uint256"
        }
      ],
      "name": "Contribution",
      "type": "event"
    },
    {
      "anonymous": false,
      "inputs": [
        {
          "indexed": false,
          "internalType": "uint256",
          "name": "_time",
          "type": "uint256"
        },
        {
          "indexed": false,
          "internalType": "string",
          "name": "_reason",
          "type": "string"
        }
      ],
      "name": "EndRequest",
      "type": "event"
    },
    {
      "anonymous": false,
      "inputs": [
        {
          "indexed": false,
          "internalType": "uint256",
          "name": "_contributors",
          "type": "uint256"
        },
        {
          "indexed": false,
          "internalType": "uint256",
          "name": "_raisedAmount",
          "type": "uint256"
        },
        {
          "indexed": false,
          "internalType": "uint256",
          "name": "_endTime",
          "type": "uint256"
        }
      ],
      "name": "Ended",
      "type": "event"
    },
    {
      "anonymous": false,
      "inputs": [
        {
          "indexed": false,
          "internalType": "uint256",
          "name": "index",
          "type": "uint256"
        },
        {
          "indexed": false,
          "internalType": "address payable",
          "name": "_recipient",
          "type": "address"
        },
        {
          "indexed": false,
          "internalType": "uint256",
          "name": "_amount",
          "type": "uint256"
        }
      ],
      "name": "Payment",
      "type": "event"
    },
    {
      "anonymous": false,
      "inputs": [
        {
          "indexed": false,
          "internalType": "string",
          "name": "_description",
          "type": "string"
        },
        {
          "indexed": false,
          "internalType": "uint256",
          "name": "_amount",
          "type": "uint256"
        },
        {
          "indexed": false,
          "internalType": "address payable",
          "name": "_recipient",
          "type": "address"
        }
      ],
      "name": "RequestMade",
      "type": "event"
    },
    {
      "inputs": [],
      "name": "contributors",
      "outputs": [
        {
          "internalType": "uint32",
          "name": "",
          "type": "uint32"
        }
      ],
      "stateMutability": "view",
      "type": "function"
    },
    {
      "inputs": [],
      "name": "description",
      "outputs": [
        {
          "internalType": "string",
          "name": "",
          "type": "string"
        }
      ],
      "stateMutability": "view",
      "type": "function"
    },
    {
      "inputs": [],
      "name": "endVotes",
      "outputs": [
        {
          "internalType": "uint16",
          "name": "",
          "type": "uint16"
        }
      ],
      "stateMutability": "view",
      "type": "function"
    },
    {
      "inputs": [],
      "name": "endingTime",
      "outputs": [
        {
          "internalType": "uint256",
          "name": "",
          "type": "uint256"
        }
      ],
      "stateMutability": "view",
      "type": "function"
    },
    {
      "inputs": [],
      "name": "minimumContribution",
      "outputs": [
        {
          "internalType": "uint256",
          "name": "",
          "type": "uint256"
        }
      ],
      "stateMutability": "view",
      "type": "function"
    },
    {
      "inputs": [],
      "name": "owner",
      "outputs": [
        {
          "internalType": "address",
          "name": "",
          "type": "address"
        }
      ],
      "stateMutability": "view",
      "type": "function"
    },
    {
      "inputs": [],
      "name": "raisedAmount",
      "outputs": [
        {
          "internalType": "uint256",
          "name": "",
          "type": "uint256"
        }
      ],
      "stateMutability": "view",
      "type": "function"
    },
    {
      "inputs": [],
      "name": "startingTime",
      "outputs": [
        {
          "internalType": "uint256",
          "name": "",
          "type": "uint256"
        }
      ],
      "stateMutability": "view",
      "type": "function"
    },
    {
      "inputs": [],
      "name": "targetAmount",
      "outputs": [
        {
          "internalType": "uint256",
          "name": "",
          "type": "uint256"
        }
      ],
      "stateMutability": "view",
      "type": "function"
    },
    {
      "inputs": [],
      "name": "title",
      "outputs": [
        {
          "internalType": "string",
          "name": "",
          "type": "string"
        }
      ],
      "stateMutability": "view",
      "type": "function"
    },
    {
      "stateMutability": "payable",
      "type": "receive"
    },
    {
      "inputs": [],
      "name": "contribute",
      "outputs": [],
      "stateMutability": "payable",
      "type": "function"
    },
    {
      "inputs": [],
      "name": "getTokenBalance",
      "outputs": [
        {
          "internalType": "uint256",
          "name": "",
          "type": "uint256"
        }
      ],
      "stateMutability": "view",
      "type": "function"
    },
    {
      "inputs": [],
      "name": "getRefund",
      "outputs": [],
      "stateMutability": "nonpayable",
      "type": "function"
    },
    {
      "inputs": [
        {
          "internalType": "string",
          "name": "_description",
          "type": "string"
        },
        {
          "internalType": "uint256",
          "name": "_amount",
          "type": "uint256"
        },
        {
          "internalType": "address payable",
          "name": "_recipient",
          "type": "address"
        }
      ],
      "name": "makeRequest",
      "outputs": [],
      "stateMutability": "nonpayable",
      "type": "function"
    },
    {
      "inputs": [
        {
          "internalType": "uint256",
          "name": "_index",
          "type": "uint256"
        }
      ],
      "name": "vote",
      "outputs": [],
      "stateMutability": "nonpayable",
      "type": "function"
    },
    {
      "inputs": [],
      "name": "tokensAvailable",
      "outputs": [
        {
          "internalType": "uint256",
          "name": "",
          "type": "uint256"
        }
      ],
      "stateMutability": "view",
      "type": "function"
    },
    {
      "inputs": [
        {
          "internalType": "uint256",
          "name": "_index",
          "type": "uint256"
        }
      ],
      "name": "makePayment",
      "outputs": [],
      "stateMutability": "nonpayable",
      "type": "function"
    },
    {
      "inputs": [],
      "name": "pause",
      "outputs": [],
      "stateMutability": "nonpayable",
      "type": "function"
    },
    {
      "inputs": [],
      "name": "resume",
      "outputs": [],
      "stateMutability": "nonpayable",
      "type": "function"
    },
    {
      "inputs": [],
      "name": "endVote",
      "outputs": [],
      "stateMutability": "nonpayable",
      "type": "function"
    },
    {
      "inputs": [
        {
          "internalType": "string",
          "name": "_reason",
          "type": "string"
        }
      ],
      "name": "endRequest",
      "outputs": [],
      "stateMutability": "nonpayable",
      "type": "function"
    },
    {
      "inputs": [],
      "name": "end",
      "outputs": [],
      "stateMutability": "nonpayable",
      "type": "function"
    }
  ],
  "bytecode": "0x60806040523480156200001157600080fd5b5060405162001ca038038062001ca083398101604081905262000034916200028f565b600a8054600160a060020a031916600160a060020a03841617905542600281905562000064906224ea0062000337565b60035560048490556005839055855162000086906006906020890190620000ea565b5084516200009c906007906020880190620000ea565b5060098054600160a060020a0392909216600160a060020a03199283168117909155600c805483169091179055600b8054909116331790555050600e805460ff1916905550620003cd915050565b828054620000f89062000377565b90600052602060002090601f0160209004810192826200011c576000855562000167565b82601f106200013757805160ff191683800117855562000167565b8280016001018555821562000167579182015b82811115620001675782518255916020019190600101906200014a565b506200017592915062000179565b5090565b5b808211156200017557600081556001016200017a565b7f4e487b7100000000000000000000000000000000000000000000000000000000600052604160045260246000fd5b600082601f830112620001d157600080fd5b81516001604060020a0380821115620001ee57620001ee62000190565b604051601f8301601f19908116603f0116810190828211818310171562000219576200021962000190565b816040528381526020925086838588010111156200023657600080fd5b600091505b838210156200025a57858201830151818301840152908201906200023b565b838211156200026c5760008385830101525b9695505050505050565b600160a060020a03811681146200028c57600080fd5b50565b60008060008060008060c08789031215620002a957600080fd5b86516001604060020a0380821115620002c157600080fd5b620002cf8a838b01620001bf565b97506020890151915080821115620002e657600080fd5b50620002f589828a01620001bf565b95505060408701519350606087015192506080870151620003168162000276565b60a0880151909250620003298162000276565b809150509295509295509295565b6000821982111562000372577f4e487b7100000000000000000000000000000000000000000000000000000000600052601160045260246000fd5b500190565b6002810460018216806200038c57607f821691505b60208210811415620003c7577f4e487b7100000000000000000000000000000000000000000000000000000000600052602260045260246000fd5b50919050565b6118c380620003dd6000396000f3fe60806040526004361061013d5760003560e060020a9004806382b2e257116100af57806396e9dc1f1161007357806396e9dc1f14610338578063b2d5ae441461036b578063b922394614610380578063c59ee1dc14610395578063d7bb99ba146103ab578063efbe1c1c146103b357600080fd5b806382b2e257146102aa5780638456cb59146102bf5780638da5cb5b146102d4578063937e09b11461030c578063953b8fb81461032257600080fd5b80634a79d50c116101015780634a79d50c146101ef5780635114cb521461021157806360659a92146102315780636c47a6c3146102465780636e7e3b2b1461025c5780637284e4161461029557600080fd5b80630121b93f14610151578063046f7da2146101715780630bfd66c9146101865780633700a06d146101a657806339518b5e146101c657600080fd5b3661014c5761014a6103c8565b005b600080fd5b34801561015d57600080fd5b5061014a61016c3660046114f5565b61092d565b34801561017d57600080fd5b5061014a610a59565b34801561019257600080fd5b5061014a6101a13660046115b4565b610aaa565b3480156101b257600080fd5b5061014a6101c136600461161b565b610bc7565b3480156101d257600080fd5b506101dc60025481565b6040519081526020015b60405180910390f35b3480156101fb57600080fd5b50610204610c67565b6040516101e691906116a5565b34801561021d57600080fd5b5061014a61022c3660046114f5565b610cf5565b34801561023d57600080fd5b506101dc610e39565b34801561025257600080fd5b506101dc60035481565b34801561026857600080fd5b50600054610280906301000000900463ffffffff1681565b60405163ffffffff90911681526020016101e6565b3480156102a157600080fd5b50610204610ec6565b3480156102b657600080fd5b506101dc610ed3565b3480156102cb57600080fd5b5061014a610f07565b3480156102e057600080fd5b50600a546102f490600160a060020a031681565b604051600160a060020a0390911681526020016101e6565b34801561031857600080fd5b506101dc60055481565b34801561032e57600080fd5b506101dc60045481565b34801561034457600080fd5b5060005461035890610100900461ffff1681565b60405161ffff90911681526020016101e6565b34801561037757600080fd5b5061014a610f54565b34801561038c57600080fd5b5061014a6110a4565b3480156103a157600080fd5b506101dc60015481565b61014a6103c8565b3480156103bf57600080fd5b5061014a6111e9565b6000600e5460ff1660028111156103e1576103e16116bf565b146103eb57600080fd5b600a54600160a060020a0316331480159061040857506005543410155b61045c5760405160e560020a62461bcd02815260206004820152601560248201527f416d6f756e74206d75737420626520686967686572000000000000000000000060448201526064015b60405180910390fd5b60055461046990346116f1565b156104df5760405160e560020a62461bcd02815260206004820152602a60248201527f56616c7565206d7573742062652061206d756c7469706c65206f66206d696e6960448201527f6d756d20616d6f756e74000000000000000000000000000000000000000000006064820152608401610453565b3360009081526008602052604090205461053057600080546301000000900463ffffffff169060036105108361171e565b91906101000a81548163ffffffff021916908363ffffffff160217905550505b336000908152600860205260408120805434929061054f908490611742565b9250508190555034600160008282546105689190611742565b909155505060055461057a903461175a565b600954600b5460405160e060020a6370a08231028152600160a060020a0391821660048201529116906370a082319060240160206040518083038186803b1580156105c457600080fd5b505afa1580156105d8573d6000803e3d6000fd5b505050506040513d601f19601f820116820180604052508101906105fc919061176e565b106106b557600954600b54600554600160a060020a03928316926323b872dd921690339061062a903461175a565b60405160e060020a63ffffffff8616028152600160a060020a0393841660048201529290911660248301526044820152606401602060405180830381600087803b15801561067757600080fd5b505af115801561068b573d6000803e3d6000fd5b505050506040513d601f19601f820116820180604052508101906106af9190611787565b506108f2565b6005546106c2903461175a565b600954600b5460405160e060020a6370a08231028152600160a060020a0391821660048201529116906370a082319060240160206040518083038186803b15801561070c57600080fd5b505afa158015610720573d6000803e3d6000fd5b505050506040513d601f19601f82011682018060405250810190610744919061176e565b1080156107d55750600954600b5460405160e060020a6370a08231028152600160a060020a03918216600482015260009291909116906370a082319060240160206040518083038186803b15801561079b57600080fd5b505afa1580156107af573d6000803e3d6000fd5b505050506040513d601f19601f820116820180604052508101906107d3919061176e565b115b156108f257600954600b5460405160e060020a6370a08231028152600160a060020a039182166004820181905291909216916323b872dd9190339084906370a082319060240160206040518083038186803b15801561083357600080fd5b505afa158015610847573d6000803e3d6000fd5b505050506040513d601f19601f8201168201806040525081019061086b919061176e565b60405160e060020a63ffffffff8616028152600160a060020a0393841660048201529290911660248301526044820152606401602060405180830381600087803b1580156108b857600080fd5b505af11580156108cc573d6000803e3d6000fd5b505050506040513d601f19601f820116820180604052508101906108f09190611787565b505b604080513381523460208201527f4d154d4aae216bed6d0926db77c00df2b57c6b5ba4eee05775de20facede3a7b91015b60405180910390a1565b60095460405160e060020a6370a08231028152336004820152600091600160a060020a0316906370a082319060240160206040518083038186803b15801561097457600080fd5b505afa158015610988573d6000803e3d6000fd5b505050506040513d601f19601f820116820180604052508101906109ac919061176e565b116109b657600080fd5b6000600e5460ff1660028111156109cf576109cf6116bf565b146109d957600080fd5b6000818152600d60209081526040808320338452600381019092529091205460ff1615610a0557600080fd5b60048101805461ffff16906000610a1b836117a9565b825461ffff9182166101009390930a928302919092021990911617905550336000908152600390910160205260409020805460ff1916600117905550565b600a54600160a060020a03163314610a7057600080fd5b6001600e5460ff166002811115610a8957610a896116bf565b14610a9357600080fd5b600e80546000919060ff19166001835b0217905550565b600a54600160a060020a03163314610ac157600080fd5b60045460015411610ad157600080fd5b6003544211610adf57600080fd5b6000600e5460ff166002811115610af857610af86116bf565b14610b0257600080fd5b6000805460ff168152600d6020908152604090912084519091610b2991839187019061145c565b506001810183905560028101805473ffffffffffffffffffffffffffffffffffffffff1916600160a060020a0384161790556000805460ff169080610b6d836117c1565b91906101000a81548160ff021916908360ff160217905550507fad85825fff8e6da2b6f59d3b220802bc57d96a920c5c530a5f22cb79c215effe848484604051610bb9939291906117e1565b60405180910390a150505050565b600a54600160a060020a03163314610bde57600080fd5b6003544211610bec57600080fd5b6000600e5460ff166002811115610c0557610c056116bf565b14610c0f57600080fd5b6000805467ff0000000000000019166701000000000000001790556040517ffcfde8886e8b19512af076fe0b4301854310a7047301bc3bae2c3f2d7a35199d90610c5c9042908490611813565b60405180910390a150565b60068054610c749061182c565b80601f0160208091040260200160405190810160405280929190818152602001828054610ca09061182c565b8015610ced5780601f10610cc257610100808354040283529160200191610ced565b820191906000526020600020905b815481529060010190602001808311610cd057829003601f168201915b505050505081565b600a54600160a060020a03163314610d0c57600080fd5b6000600e5460ff166002811115610d2557610d256116bf565b14610d2f57600080fd5b6000818152600d60205260409020600481015462010000900460ff1615610d5557600080fd5b600054610d71906002906301000000900463ffffffff1661186a565b600482015463ffffffff9190911661ffff9091161015610d9057600080fd5b60028101546001820154604051600160a060020a039092169181156108fc0291906000818181858888f19350505050158015610dd0573d6000803e3d6000fd5b5060048101805462ff00001916620100001790556002810154600182015460408051858152600160a060020a0390931660208401528201527fdef0dd1961901757e759c1e3e1ced766d61d989aa5030414848dae6bac75cbdd9060600160405180910390a15050565b600954600b5460405160e060020a6370a08231028152600160a060020a03918216600482015260009291909116906370a08231906024015b60206040518083038186803b158015610e8957600080fd5b505afa158015610e9d573d6000803e3d6000fd5b505050506040513d601f19601f82011682018060405250810190610ec1919061176e565b905090565b60078054610c749061182c565b60095460405160e060020a6370a08231028152336004820152600091600160a060020a0316906370a0823190602401610e71565b600a54600160a060020a03163314610f1e57600080fd5b6000600e5460ff166002811115610f3757610f376116bf565b14610f4157600080fd5b600e80546001919060ff19168280610aa3565b33600090815260086020526040902054610f6d57600080fd5b60095460405160e060020a6370a08231028152336004820152600091600160a060020a0316906370a082319060240160206040518083038186803b158015610fb457600080fd5b505afa158015610fc8573d6000803e3d6000fd5b505050506040513d601f19601f82011682018060405250810190610fec919061176e565b11610ff657600080fd5b600354421161100457600080fd5b6004546001541061105a5760405160e560020a62461bcd02815260206004820152601a60248201527f54617267657420616d6f756e7420686173206265656e206d65740000000000006044820152606401610453565b3360008181526008602052604080822054905181156108fc0292818181858888f19350505050158015611091573d6000803e3d6000fd5b5033600090815260086020526040812055565b60095460405160e060020a6370a08231028152336004820152600091600160a060020a0316906370a082319060240160206040518083038186803b1580156110eb57600080fd5b505afa1580156110ff573d6000803e3d6000fd5b505050506040513d601f19601f82011682018060405250810190611123919061176e565b1161112d57600080fd5b600054670100000000000000900460ff166111b35760405160e560020a62461bcd02815260206004820152602760248201527f566f74696e6720666f722073616c6520656e6420686173206e6f74207374617260448201527f74656420796574000000000000000000000000000000000000000000000000006064820152608401610453565b60008054610100900461ffff169060016111cc836117a9565b91906101000a81548161ffff021916908361ffff16021790555050565b600a54600160a060020a0316331461120057600080fd5b6002600e5460ff166002811115611219576112196116bf565b141561122457600080fd5b600054611240906002906301000000900463ffffffff1661186a565b63ffffffff16600060019054906101000a900461ffff1661ffff161161126557600080fd5b600a54604051600160a060020a0390911690303180156108fc02916000818181858888f1935050505015801561129f573d6000803e3d6000fd5b50600e805460ff191660021790556112b5611306565b60005460015460408051630100000090930463ffffffff168352602083019190915242908201527f94942738dac5813db86bc09e12c382aaa6824a675cfd6f834a8e2d5a964ac3c490606001610923565b600a54600160a060020a0316331461131d57600080fd5b6002600e5460ff166002811115611336576113366116bf565b1461134057600080fd5b600954600b54600a5460405160e060020a6370a08231028152600160a060020a0392831660048201819052938316936323b872dd939092169084906370a082319060240160206040518083038186803b15801561139c57600080fd5b505afa1580156113b0573d6000803e3d6000fd5b505050506040513d601f19601f820116820180604052508101906113d4919061176e565b60405160e060020a63ffffffff8616028152600160a060020a0393841660048201529290911660248301526044820152606401602060405180830381600087803b15801561142157600080fd5b505af1158015611435573d6000803e3d6000fd5b505050506040513d601f19601f820116820180604052508101906114599190611787565b50565b8280546114689061182c565b90600052602060002090601f01602090048101928261148a57600085556114d0565b82601f106114a357805160ff19168380011785556114d0565b828001600101855582156114d0579182015b828111156114d05782518255916020019190600101906114b5565b506114dc9291506114e0565b5090565b5b808211156114dc57600081556001016114e1565b60006020828403121561150757600080fd5b5035919050565b60e060020a634e487b7102600052604160045260246000fd5b600082601f83011261153857600080fd5b813567ffffffffffffffff808211156115535761155361150e565b604051601f8301601f19908116603f0116810190828211818310171561157b5761157b61150e565b8160405283815286602085880101111561159457600080fd5b836020870160208301376000602085830101528094505050505092915050565b6000806000606084860312156115c957600080fd5b833567ffffffffffffffff8111156115e057600080fd5b6115ec86828701611527565b935050602084013591506040840135600160a060020a038116811461161057600080fd5b809150509250925092565b60006020828403121561162d57600080fd5b813567ffffffffffffffff81111561164457600080fd5b61165084828501611527565b949350505050565b6000815180845260005b8181101561167e57602081850181015186830182015201611662565b81811115611690576000602083870101525b50601f01601f19169290920160200192915050565b6020815260006116b86020830184611658565b9392505050565b60e060020a634e487b7102600052602160045260246000fd5b60e060020a634e487b7102600052601260045260246000fd5b600082611700576117006116d8565b500690565b60e060020a634e487b7102600052601160045260246000fd5b600063ffffffff8083168181141561173857611738611705565b6001019392505050565b6000821982111561175557611755611705565b500190565b600082611769576117696116d8565b500490565b60006020828403121561178057600080fd5b5051919050565b60006020828403121561179957600080fd5b815180151581146116b857600080fd5b600061ffff8083168181141561173857611738611705565b600060ff821660ff8114156117d8576117d8611705565b60010192915050565b6060815260006117f46060830186611658565b9050836020830152600160a060020a0383166040830152949350505050565b8281526040602082015260006116506040830184611658565b60028104600182168061184057607f821691505b602082108114156118645760e060020a634e487b7102600052602260045260246000fd5b50919050565b600063ffffffff80841680611881576118816116d8565b9216919091049291505056fea264697066735822122077f72786cd8cd2b09d16641edfe2ad0d2bddc8b387df0d3237298415ed7a97be64736f6c63430008090033",
  "immutableReferences": {},
  "source": "// SPDX-License-Identifier: GPL-3.0\r\npragma solidity 0.8.9;\r\nimport \"./TokenContract.sol\";\r\n\r\ncontract Crowdsale{\r\n    uint8 reqCounter;\r\n    uint16 public endVotes;\r\n    uint32 public contributors;\r\n    bool requestEnd;\r\n    uint public raisedAmount;\r\n    uint public startingTime;\r\n    uint public endingTime;\r\n    uint public targetAmount;\r\n    uint public minimumContribution;\r\n    string public title; \r\n    string public description; \r\n    \r\n    mapping(address=>uint) contributedAmount;\r\n    struct Request{\r\n        string description;\r\n        uint amount;\r\n        address payable recipient;\r\n        mapping(address => bool) votes;\r\n        uint16 voteCount;\r\n        bool completed;\r\n    }\r\n    \r\n    TokenContract token;\r\n    address public owner;\r\n    address factory;\r\n    address tokenAddress;\r\n    mapping(uint => Request) requests;\r\n    enum State {RUNNING, PAUSED, ENDED}\r\n    State currentState;\r\n\r\n    event Contribution(address _from, uint _amount);\r\n    event RequestMade(string _description, uint _amount, address payable _recipient);\r\n    event Payment(uint index, address payable _recipient, uint _amount);\r\n    event EndRequest(uint _time, string _reason);\r\n    event Ended(uint _contributors, uint _raisedAmount, uint _endTime);\r\n\r\n    constructor(string memory _title, string memory _description, uint _targetAmount, uint _minimumContribution, address _owner, TokenContract _token){\r\n        owner = _owner;\r\n        startingTime = block.timestamp;\r\n        endingTime = startingTime + 4 weeks;\r\n        targetAmount = _targetAmount;\r\n        minimumContribution = _minimumContribution;\r\n        title = _title;\r\n        description = _description;\r\n        token = _token;\r\n        tokenAddress = address(token);\r\n        factory = msg.sender;\r\n        currentState = State.RUNNING;\r\n    }\r\n    \r\n    modifier onlyOwner{\r\n        require(msg.sender == owner);\r\n        _;\r\n    }\r\n    modifier goalMet{\r\n        require(raisedAmount>targetAmount);\r\n        _;\r\n    }\r\n    modifier timeMet{\r\n        require(block.timestamp>endingTime);\r\n        _;\r\n    }\r\n    modifier isContributor{\r\n        require(contributedAmount[msg.sender]>0);\r\n        _;\r\n    }\r\n    modifier tokenHolder{\r\n        require(token.balanceOf(msg.sender)>0);\r\n        _;\r\n    }\r\n    modifier saleActive{\r\n        require(currentState == State.RUNNING);\r\n        _;\r\n    }\r\n    modifier saleEnd{\r\n        require(currentState == State.ENDED);\r\n        _;\r\n    }\r\n    receive() external payable{\r\n        contribute();\r\n    }\r\n\r\n    function contribute() public payable saleActive{\r\n        require(msg.sender != owner && msg.value>=minimumContribution, \"Amount must be higher\");\r\n        require(msg.value % minimumContribution == 0, \"Value must be a multiple of minimum amount\");\r\n        if(contributedAmount[msg.sender] == 0){\r\n            contributors++;\r\n        }\r\n        contributedAmount[msg.sender] += msg.value;\r\n        raisedAmount += msg.value;\r\n        if(token.balanceOf(factory)>=msg.value/minimumContribution){\r\n            token.transferFrom(factory, msg.sender, msg.value/minimumContribution);\r\n        }else if(token.balanceOf(factory)<msg.value/minimumContribution && token.balanceOf(factory)>0){\r\n            token.transferFrom(factory, msg.sender, token.balanceOf(factory));\r\n        }\r\n        emit Contribution(msg.sender, msg.value);\r\n    }\r\n    \r\n    function getTokenBalance() external view returns (uint){\r\n        return token.balanceOf(msg.sender);\r\n    }\r\n\r\n    function getRefund() external isContributor tokenHolder timeMet {\r\n        require(raisedAmount<targetAmount, \"Target amount has been met\");\r\n        payable(msg.sender).transfer(contributedAmount[msg.sender]);\r\n        contributedAmount[msg.sender] = 0;\r\n    }\r\n\r\n    function makeRequest(string memory _description, uint _amount, address payable _recipient) external onlyOwner goalMet timeMet saleActive{\r\n        Request storage newRequest = requests[reqCounter];\r\n        newRequest.description = _description;\r\n        newRequest.amount = _amount;\r\n        newRequest.recipient = _recipient;\r\n        reqCounter++;\r\n        emit RequestMade(_description, _amount, _recipient);\r\n    }\r\n\r\n    function vote(uint _index) external tokenHolder saleActive{\r\n        Request storage approveRequest = requests[_index];\r\n        require(approveRequest.votes[msg.sender] == false);\r\n        approveRequest.voteCount++;\r\n        approveRequest.votes[msg.sender] = true;\r\n    }\r\n    \r\n    function tokensAvailable() external view returns (uint){\r\n        return token.balanceOf(factory);\r\n    }\r\n    \r\n    function makePayment(uint _index) external onlyOwner saleActive{\r\n        Request storage approveRequest = requests[_index];\r\n        require(approveRequest.completed == false);\r\n        require(approveRequest.voteCount >= contributors/2);\r\n        approveRequest.recipient.transfer(approveRequest.amount);\r\n        approveRequest.completed = true;\r\n        emit Payment(_index, approveRequest.recipient, approveRequest.amount);\r\n    } \r\n\r\n    function _withdrawRemainingTokens() private onlyOwner saleEnd{\r\n        token.transferFrom(factory, owner, token.balanceOf(factory));\r\n    }\r\n\r\n    function pause() external onlyOwner saleActive{\r\n        currentState = State.PAUSED;\r\n    }\r\n\r\n    function resume() external onlyOwner{\r\n        require(currentState == State.PAUSED);\r\n        currentState = State.RUNNING;\r\n    }\r\n\r\n    function endVote() external tokenHolder {\r\n        require(requestEnd, \"Voting for sale end has not started yet\");\r\n        endVotes++;\r\n    }\r\n\r\n    function endRequest(string memory _reason) external onlyOwner timeMet saleActive{\r\n        requestEnd = true;\r\n        emit EndRequest(block.timestamp, _reason);\r\n    }\r\n\r\n    function end() external onlyOwner {\r\n        require(currentState != State.ENDED);\r\n        require(endVotes > (contributors/2));\r\n        payable(owner).transfer(address(this).balance);\r\n        currentState = State.ENDED;\r\n        _withdrawRemainingTokens();\r\n        emit Ended(contributors, raisedAmount, block.timestamp);\r\n    }\r\n}",
  "sourcePath": "D:\\Projects\\Crowdfunding\\contracts\\Crowdsale.sol",
  "compiler": {
    "name": "solc",
    "version": "0.8.9+commit.e5eed63a.Emscripten.clang"
  },
  "schemaVersion": "3.4.3",
  "updatedAt": "2021-10-29T07:11:35.051Z",
  "devdoc": {
    "kind": "dev",
    "methods": {},
    "version": 1
  },
  "userdoc": {
    "kind": "user",
    "methods": {},
    "version": 1
  }
}