{
  "contractName": "Crowdsale",
  "abi": [
    {
      "inputs": [
        {
          "internalType": "string",
          "name": "_title",
          "type": "string"
        },
        {
          "internalType": "string",
          "name": "_description",
          "type": "string"
        },
        {
          "internalType": "uint256",
          "name": "_targetAmount",
          "type": "uint256"
        },
        {
          "internalType": "uint256",
          "name": "_minimumContribution",
          "type": "uint256"
        },
        {
          "internalType": "address",
          "name": "_owner",
          "type": "address"
        },
        {
          "internalType": "contract TokenContract",
          "name": "_token",
          "type": "address"
        }
      ],
      "stateMutability": "nonpayable",
      "type": "constructor"
    },
    {
      "anonymous": false,
      "inputs": [
        {
          "indexed": false,
          "internalType": "address",
          "name": "_from",
          "type": "address"
        },
        {
          "indexed": false,
          "internalType": "uint256",
          "name": "_amount",
          "type": "uint256"
        }
      ],
      "name": "Contribution",
      "type": "event"
    },
    {
      "anonymous": false,
      "inputs": [
        {
          "indexed": false,
          "internalType": "uint256",
          "name": "_time",
          "type": "uint256"
        },
        {
          "indexed": false,
          "internalType": "string",
          "name": "_reason",
          "type": "string"
        }
      ],
      "name": "EndRequest",
      "type": "event"
    },
    {
      "anonymous": false,
      "inputs": [
        {
          "indexed": false,
          "internalType": "uint256",
          "name": "_contributors",
          "type": "uint256"
        },
        {
          "indexed": false,
          "internalType": "uint256",
          "name": "_raisedAmount",
          "type": "uint256"
        },
        {
          "indexed": false,
          "internalType": "uint256",
          "name": "_endTime",
          "type": "uint256"
        }
      ],
      "name": "Ended",
      "type": "event"
    },
    {
      "anonymous": false,
      "inputs": [
        {
          "indexed": false,
          "internalType": "uint256",
          "name": "index",
          "type": "uint256"
        },
        {
          "indexed": false,
          "internalType": "address payable",
          "name": "_recipient",
          "type": "address"
        },
        {
          "indexed": false,
          "internalType": "uint256",
          "name": "_amount",
          "type": "uint256"
        }
      ],
      "name": "Payment",
      "type": "event"
    },
    {
      "anonymous": false,
      "inputs": [
        {
          "indexed": false,
          "internalType": "string",
          "name": "_description",
          "type": "string"
        },
        {
          "indexed": false,
          "internalType": "uint256",
          "name": "_amount",
          "type": "uint256"
        },
        {
          "indexed": false,
          "internalType": "address payable",
          "name": "_recipient",
          "type": "address"
        }
      ],
      "name": "RequestMade",
      "type": "event"
    },
    {
      "inputs": [],
      "name": "contributors",
      "outputs": [
        {
          "internalType": "uint32",
          "name": "",
          "type": "uint32"
        }
      ],
      "stateMutability": "view",
      "type": "function"
    },
    {
      "inputs": [],
      "name": "description",
      "outputs": [
        {
          "internalType": "string",
          "name": "",
          "type": "string"
        }
      ],
      "stateMutability": "view",
      "type": "function"
    },
    {
      "inputs": [],
      "name": "endVotes",
      "outputs": [
        {
          "internalType": "uint16",
          "name": "",
          "type": "uint16"
        }
      ],
      "stateMutability": "view",
      "type": "function"
    },
    {
      "inputs": [],
      "name": "endingTime",
      "outputs": [
        {
          "internalType": "uint256",
          "name": "",
          "type": "uint256"
        }
      ],
      "stateMutability": "view",
      "type": "function"
    },
    {
      "inputs": [],
      "name": "factory",
      "outputs": [
        {
          "internalType": "address",
          "name": "",
          "type": "address"
        }
      ],
      "stateMutability": "view",
      "type": "function"
    },
    {
      "inputs": [],
      "name": "minimumContribution",
      "outputs": [
        {
          "internalType": "uint256",
          "name": "",
          "type": "uint256"
        }
      ],
      "stateMutability": "view",
      "type": "function"
    },
    {
      "inputs": [],
      "name": "owner",
      "outputs": [
        {
          "internalType": "address",
          "name": "",
          "type": "address"
        }
      ],
      "stateMutability": "view",
      "type": "function"
    },
    {
      "inputs": [],
      "name": "raisedAmount",
      "outputs": [
        {
          "internalType": "uint256",
          "name": "",
          "type": "uint256"
        }
      ],
      "stateMutability": "view",
      "type": "function"
    },
    {
      "inputs": [],
      "name": "startingTime",
      "outputs": [
        {
          "internalType": "uint256",
          "name": "",
          "type": "uint256"
        }
      ],
      "stateMutability": "view",
      "type": "function"
    },
    {
      "inputs": [],
      "name": "targetAmount",
      "outputs": [
        {
          "internalType": "uint256",
          "name": "",
          "type": "uint256"
        }
      ],
      "stateMutability": "view",
      "type": "function"
    },
    {
      "inputs": [],
      "name": "title",
      "outputs": [
        {
          "internalType": "string",
          "name": "",
          "type": "string"
        }
      ],
      "stateMutability": "view",
      "type": "function"
    },
    {
      "inputs": [],
      "name": "tokenAddress",
      "outputs": [
        {
          "internalType": "address",
          "name": "",
          "type": "address"
        }
      ],
      "stateMutability": "view",
      "type": "function"
    },
    {
      "stateMutability": "payable",
      "type": "receive"
    },
    {
      "inputs": [],
      "name": "contribute",
      "outputs": [],
      "stateMutability": "payable",
      "type": "function"
    },
    {
      "inputs": [],
      "name": "getTokenBalance",
      "outputs": [
        {
          "internalType": "uint256",
          "name": "",
          "type": "uint256"
        }
      ],
      "stateMutability": "view",
      "type": "function"
    },
    {
      "inputs": [],
      "name": "getRefund",
      "outputs": [],
      "stateMutability": "nonpayable",
      "type": "function"
    },
    {
      "inputs": [
        {
          "internalType": "string",
          "name": "_description",
          "type": "string"
        },
        {
          "internalType": "uint256",
          "name": "_amount",
          "type": "uint256"
        },
        {
          "internalType": "address payable",
          "name": "_recipient",
          "type": "address"
        }
      ],
      "name": "makeRequest",
      "outputs": [],
      "stateMutability": "nonpayable",
      "type": "function"
    },
    {
      "inputs": [
        {
          "internalType": "uint256",
          "name": "_index",
          "type": "uint256"
        }
      ],
      "name": "vote",
      "outputs": [],
      "stateMutability": "nonpayable",
      "type": "function"
    },
    {
      "inputs": [],
      "name": "tokensAvailable",
      "outputs": [
        {
          "internalType": "uint256",
          "name": "",
          "type": "uint256"
        }
      ],
      "stateMutability": "view",
      "type": "function"
    },
    {
      "inputs": [
        {
          "internalType": "uint256",
          "name": "_index",
          "type": "uint256"
        }
      ],
      "name": "makePayment",
      "outputs": [],
      "stateMutability": "nonpayable",
      "type": "function"
    },
    {
      "inputs": [],
      "name": "pause",
      "outputs": [],
      "stateMutability": "nonpayable",
      "type": "function"
    },
    {
      "inputs": [],
      "name": "resume",
      "outputs": [],
      "stateMutability": "nonpayable",
      "type": "function"
    },
    {
      "inputs": [],
      "name": "endVote",
      "outputs": [],
      "stateMutability": "nonpayable",
      "type": "function"
    },
    {
      "inputs": [
        {
          "internalType": "string",
          "name": "_reason",
          "type": "string"
        }
      ],
      "name": "endRequest",
      "outputs": [],
      "stateMutability": "nonpayable",
      "type": "function"
    },
    {
      "inputs": [],
      "name": "end",
      "outputs": [],
      "stateMutability": "nonpayable",
      "type": "function"
    }
  ],
  "bytecode": "0x60806040523480156200001157600080fd5b506040516200336638038062003366833981810160405281019062000037919062000529565b81600a60006101000a81548173ffffffffffffffffffffffffffffffffffffffff021916908373ffffffffffffffffffffffffffffffffffffffff160217905550426002819055506224ea0060025462000092919062000632565b60038190555083600481905550826005819055508560069080519060200190620000be929190620001f7565b508460079080519060200190620000d7929190620001f7565b5080600960006101000a81548173ffffffffffffffffffffffffffffffffffffffff021916908373ffffffffffffffffffffffffffffffffffffffff160217905550600960009054906101000a900473ffffffffffffffffffffffffffffffffffffffff16600c60006101000a81548173ffffffffffffffffffffffffffffffffffffffff021916908373ffffffffffffffffffffffffffffffffffffffff16021790555033600b60006101000a81548173ffffffffffffffffffffffffffffffffffffffff021916908373ffffffffffffffffffffffffffffffffffffffff1602179055506000600e60006101000a81548160ff02191690836002811115620001e657620001e56200068f565b5b021790555050505050505062000723565b8280546200020590620006ed565b90600052602060002090601f01602090048101928262000229576000855562000275565b82601f106200024457805160ff191683800117855562000275565b8280016001018555821562000275579182015b828111156200027457825182559160200191906001019062000257565b5b50905062000284919062000288565b5090565b5b80821115620002a357600081600090555060010162000289565b5090565b6000604051905090565b600080fd5b600080fd5b600080fd5b600080fd5b6000601f19601f8301169050919050565b7f4e487b7100000000000000000000000000000000000000000000000000000000600052604160045260246000fd5b6200031082620002c5565b810181811067ffffffffffffffff82111715620003325762000331620002d6565b5b80604052505050565b600062000347620002a7565b905062000355828262000305565b919050565b600067ffffffffffffffff821115620003785762000377620002d6565b5b6200038382620002c5565b9050602081019050919050565b60005b83811015620003b057808201518184015260208101905062000393565b83811115620003c0576000848401525b50505050565b6000620003dd620003d7846200035a565b6200033b565b905082815260208101848484011115620003fc57620003fb620002c0565b5b6200040984828562000390565b509392505050565b600082601f830112620004295762000428620002bb565b5b81516200043b848260208601620003c6565b91505092915050565b6000819050919050565b620004598162000444565b81146200046557600080fd5b50565b60008151905062000479816200044e565b92915050565b600073ffffffffffffffffffffffffffffffffffffffff82169050919050565b6000620004ac826200047f565b9050919050565b620004be816200049f565b8114620004ca57600080fd5b50565b600081519050620004de81620004b3565b92915050565b6000620004f1826200049f565b9050919050565b6200050381620004e4565b81146200050f57600080fd5b50565b6000815190506200052381620004f8565b92915050565b60008060008060008060c08789031215620005495762000548620002b1565b5b600087015167ffffffffffffffff8111156200056a5762000569620002b6565b5b6200057889828a0162000411565b965050602087015167ffffffffffffffff8111156200059c576200059b620002b6565b5b620005aa89828a0162000411565b9550506040620005bd89828a0162000468565b9450506060620005d089828a0162000468565b9350506080620005e389828a01620004cd565b92505060a0620005f689828a0162000512565b9150509295509295509295565b7f4e487b7100000000000000000000000000000000000000000000000000000000600052601160045260246000fd5b60006200063f8262000444565b91506200064c8362000444565b9250827fffffffffffffffffffffffffffffffffffffffffffffffffffffffffffffffff0382111562000684576200068362000603565b5b828201905092915050565b7f4e487b7100000000000000000000000000000000000000000000000000000000600052602160045260246000fd5b7f4e487b7100000000000000000000000000000000000000000000000000000000600052602260045260246000fd5b600060028204905060018216806200070657607f821691505b602082108114156200071d576200071c620006be565b5b50919050565b612c3380620007336000396000f3fe60806040526004361061014f5760003560e01c80638456cb59116100b6578063b2d5ae441161006f578063b2d5ae4414610439578063b922394614610450578063c45a015514610467578063c59ee1dc14610492578063d7bb99ba146104bd578063efbe1c1c146104c75761015e565b80638456cb591461034b5780638da5cb5b14610362578063937e09b11461038d578063953b8fb8146103b857806396e9dc1f146103e35780639d76ea581461040e5761015e565b80635114cb52116101085780635114cb521461024b57806360659a92146102745780636c47a6c31461029f5780636e7e3b2b146102ca5780637284e416146102f557806382b2e257146103205761015e565b80630121b93f14610163578063046f7da21461018c5780630bfd66c9146101a35780633700a06d146101cc57806339518b5e146101f55780634a79d50c146102205761015e565b3661015e5761015c6104de565b005b600080fd5b34801561016f57600080fd5b5061018a60048036038101906101859190612163565b610c62565b005b34801561019857600080fd5b506101a1610e88565b005b3480156101af57600080fd5b506101ca60048036038101906101c59190612334565b610f4f565b005b3480156101d857600080fd5b506101f360048036038101906101ee91906123a3565b61110c565b005b34801561020157600080fd5b5061020a61120b565b60405161021791906123fb565b60405180910390f35b34801561022c57600080fd5b50610235611211565b604051610242919061249e565b60405180910390f35b34801561025757600080fd5b50610272600480360381019061026d9190612163565b61129f565b005b34801561028057600080fd5b506102896114ca565b60405161029691906123fb565b60405180910390f35b3480156102ab57600080fd5b506102b461159e565b6040516102c191906123fb565b60405180910390f35b3480156102d657600080fd5b506102df6115a4565b6040516102ec91906124df565b60405180910390f35b34801561030157600080fd5b5061030a6115ba565b604051610317919061249e565b60405180910390f35b34801561032c57600080fd5b50610335611648565b60405161034291906123fb565b60405180910390f35b34801561035757600080fd5b506103606116fa565b005b34801561036e57600080fd5b506103776117c1565b604051610384919061251b565b60405180910390f35b34801561039957600080fd5b506103a26117e7565b6040516103af91906123fb565b60405180910390f35b3480156103c457600080fd5b506103cd6117ed565b6040516103da91906123fb565b60405180910390f35b3480156103ef57600080fd5b506103f86117f3565b6040516104059190612553565b60405180910390f35b34801561041a57600080fd5b50610423611807565b604051610430919061251b565b60405180910390f35b34801561044557600080fd5b5061044e61182d565b005b34801561045c57600080fd5b50610465611a91565b005b34801561047357600080fd5b5061047c611c22565b604051610489919061251b565b60405180910390f35b34801561049e57600080fd5b506104a7611c48565b6040516104b491906123fb565b60405180910390f35b6104c56104de565b005b3480156104d357600080fd5b506104dc611c4e565b005b600060028111156104f2576104f161256e565b5b600e60009054906101000a900460ff1660028111156105145761051361256e565b5b1461051e57600080fd5b600a60009054906101000a900473ffffffffffffffffffffffffffffffffffffffff1673ffffffffffffffffffffffffffffffffffffffff163373ffffffffffffffffffffffffffffffffffffffff161415801561057e57506005543410155b6105bd576040517f08c379a00000000000000000000000000000000000000000000000000000000081526004016105b4906125e9565b60405180910390fd5b6000600554346105cd9190612638565b1461060d576040517f08c379a0000000000000000000000000000000000000000000000000000000008152600401610604906126db565b60405180910390fd5b6000600860003373ffffffffffffffffffffffffffffffffffffffff1673ffffffffffffffffffffffffffffffffffffffff168152602001908152602001600020541415610697576000600381819054906101000a900463ffffffff16809291906106779061272a565b91906101000a81548163ffffffff021916908363ffffffff160217905550505b34600860003373ffffffffffffffffffffffffffffffffffffffff1673ffffffffffffffffffffffffffffffffffffffff16815260200190815260200160002060008282546106e69190612757565b9250508190555034600160008282546106ff9190612757565b925050819055506005543461071491906127ad565b600960009054906101000a900473ffffffffffffffffffffffffffffffffffffffff1673ffffffffffffffffffffffffffffffffffffffff166370a08231600b60009054906101000a900473ffffffffffffffffffffffffffffffffffffffff166040518263ffffffff1660e01b8152600401610791919061251b565b60206040518083038186803b1580156107a957600080fd5b505afa1580156107bd573d6000803e3d6000fd5b505050506040513d601f19601f820116820180604052508101906107e191906127f3565b106108cc57600960009054906101000a900473ffffffffffffffffffffffffffffffffffffffff1673ffffffffffffffffffffffffffffffffffffffff166323b872dd600b60009054906101000a900473ffffffffffffffffffffffffffffffffffffffff16336005543461085691906127ad565b6040518463ffffffff1660e01b815260040161087493929190612820565b602060405180830381600087803b15801561088e57600080fd5b505af11580156108a2573d6000803e3d6000fd5b505050506040513d601f19601f820116820180604052508101906108c6919061288f565b50610c27565b600554346108da91906127ad565b600960009054906101000a900473ffffffffffffffffffffffffffffffffffffffff1673ffffffffffffffffffffffffffffffffffffffff166370a08231600b60009054906101000a900473ffffffffffffffffffffffffffffffffffffffff166040518263ffffffff1660e01b8152600401610957919061251b565b60206040518083038186803b15801561096f57600080fd5b505afa158015610983573d6000803e3d6000fd5b505050506040513d601f19601f820116820180604052508101906109a791906127f3565b108015610a8057506000600960009054906101000a900473ffffffffffffffffffffffffffffffffffffffff1673ffffffffffffffffffffffffffffffffffffffff166370a08231600b60009054906101000a900473ffffffffffffffffffffffffffffffffffffffff166040518263ffffffff1660e01b8152600401610a2e919061251b565b60206040518083038186803b158015610a4657600080fd5b505afa158015610a5a573d6000803e3d6000fd5b505050506040513d601f19601f82011682018060405250810190610a7e91906127f3565b115b15610c2657600960009054906101000a900473ffffffffffffffffffffffffffffffffffffffff1673ffffffffffffffffffffffffffffffffffffffff166323b872dd600b60009054906101000a900473ffffffffffffffffffffffffffffffffffffffff1633600960009054906101000a900473ffffffffffffffffffffffffffffffffffffffff1673ffffffffffffffffffffffffffffffffffffffff166370a08231600b60009054906101000a900473ffffffffffffffffffffffffffffffffffffffff166040518263ffffffff1660e01b8152600401610b64919061251b565b60206040518083038186803b158015610b7c57600080fd5b505afa158015610b90573d6000803e3d6000fd5b505050506040513d601f19601f82011682018060405250810190610bb491906127f3565b6040518463ffffffff1660e01b8152600401610bd293929190612820565b602060405180830381600087803b158015610bec57600080fd5b505af1158015610c00573d6000803e3d6000fd5b505050506040513d601f19601f82011682018060405250810190610c24919061288f565b505b5b7f4d154d4aae216bed6d0926db77c00df2b57c6b5ba4eee05775de20facede3a7b3334604051610c589291906128bc565b60405180910390a1565b6000600960009054906101000a900473ffffffffffffffffffffffffffffffffffffffff1673ffffffffffffffffffffffffffffffffffffffff166370a08231336040518263ffffffff1660e01b8152600401610cbf919061251b565b60206040518083038186803b158015610cd757600080fd5b505afa158015610ceb573d6000803e3d6000fd5b505050506040513d601f19601f82011682018060405250810190610d0f91906127f3565b11610d1957600080fd5b60045460015411610d2957600080fd5b6003544211610d3757600080fd5b60006002811115610d4b57610d4a61256e565b5b600e60009054906101000a900460ff166002811115610d6d57610d6c61256e565b5b14610d7757600080fd5b6000600d60008381526020019081526020016000209050600015158160030160003373ffffffffffffffffffffffffffffffffffffffff1673ffffffffffffffffffffffffffffffffffffffff16815260200190815260200160002060009054906101000a900460ff16151514610ded57600080fd5b80600401600081819054906101000a900461ffff1680929190610e0f906128e5565b91906101000a81548161ffff021916908361ffff1602179055505060018160030160003373ffffffffffffffffffffffffffffffffffffffff1673ffffffffffffffffffffffffffffffffffffffff16815260200190815260200160002060006101000a81548160ff0219169083151502179055505050565b600a60009054906101000a900473ffffffffffffffffffffffffffffffffffffffff1673ffffffffffffffffffffffffffffffffffffffff163373ffffffffffffffffffffffffffffffffffffffff1614610ee257600080fd5b60016002811115610ef657610ef561256e565b5b600e60009054906101000a900460ff166002811115610f1857610f1761256e565b5b14610f2257600080fd5b6000600e60006101000a81548160ff02191690836002811115610f4857610f4761256e565b5b0217905550565b600a60009054906101000a900473ffffffffffffffffffffffffffffffffffffffff1673ffffffffffffffffffffffffffffffffffffffff163373ffffffffffffffffffffffffffffffffffffffff1614610fa957600080fd5b60045460015411610fb957600080fd5b6003544211610fc757600080fd5b60006002811115610fdb57610fda61256e565b5b600e60009054906101000a900460ff166002811115610ffd57610ffc61256e565b5b1461100757600080fd5b6000600d60008060009054906101000a900460ff1660ff168152602001908152602001600020905083816000019080519060200190611047929190612076565b50828160010181905550818160020160006101000a81548173ffffffffffffffffffffffffffffffffffffffff021916908373ffffffffffffffffffffffffffffffffffffffff16021790555060008081819054906101000a900460ff16809291906110b29061291d565b91906101000a81548160ff021916908360ff160217905550507fad85825fff8e6da2b6f59d3b220802bc57d96a920c5c530a5f22cb79c215effe8484846040516110fe93929190612956565b60405180910390a150505050565b600a60009054906101000a900473ffffffffffffffffffffffffffffffffffffffff1673ffffffffffffffffffffffffffffffffffffffff163373ffffffffffffffffffffffffffffffffffffffff161461116657600080fd5b600354421161117457600080fd5b600060028111156111885761118761256e565b5b600e60009054906101000a900460ff1660028111156111aa576111a961256e565b5b146111b457600080fd5b6001600060076101000a81548160ff0219169083151502179055507ffcfde8886e8b19512af076fe0b4301854310a7047301bc3bae2c3f2d7a35199d4282604051611200929190612994565b60405180910390a150565b60025481565b6006805461121e906129f3565b80601f016020809104026020016040519081016040528092919081815260200182805461124a906129f3565b80156112975780601f1061126c57610100808354040283529160200191611297565b820191906000526020600020905b81548152906001019060200180831161127a57829003601f168201915b505050505081565b600a60009054906101000a900473ffffffffffffffffffffffffffffffffffffffff1673ffffffffffffffffffffffffffffffffffffffff163373ffffffffffffffffffffffffffffffffffffffff16146112f957600080fd5b6004546001541161130957600080fd5b600354421161131757600080fd5b6000600281111561132b5761132a61256e565b5b600e60009054906101000a900460ff16600281111561134d5761134c61256e565b5b1461135757600080fd5b6000600d60008381526020019081526020016000209050600015158160040160029054906101000a900460ff1615151461139057600080fd5b6002600060039054906101000a900463ffffffff166113af9190612a25565b63ffffffff168160040160009054906101000a900461ffff1661ffff1610156113d757600080fd5b8060020160009054906101000a900473ffffffffffffffffffffffffffffffffffffffff1673ffffffffffffffffffffffffffffffffffffffff166108fc82600101549081150290604051600060405180830381858888f19350505050158015611445573d6000803e3d6000fd5b5060018160040160026101000a81548160ff0219169083151502179055507fdef0dd1961901757e759c1e3e1ced766d61d989aa5030414848dae6bac75cbdd828260020160009054906101000a900473ffffffffffffffffffffffffffffffffffffffff1683600101546040516114be93929190612a56565b60405180910390a15050565b6000600960009054906101000a900473ffffffffffffffffffffffffffffffffffffffff1673ffffffffffffffffffffffffffffffffffffffff166370a08231600b60009054906101000a900473ffffffffffffffffffffffffffffffffffffffff166040518263ffffffff1660e01b8152600401611549919061251b565b60206040518083038186803b15801561156157600080fd5b505afa158015611575573d6000803e3d6000fd5b505050506040513d601f19601f8201168201806040525081019061159991906127f3565b905090565b60035481565b600060039054906101000a900463ffffffff1681565b600780546115c7906129f3565b80601f01602080910402602001604051908101604052809291908181526020018280546115f3906129f3565b80156116405780601f1061161557610100808354040283529160200191611640565b820191906000526020600020905b81548152906001019060200180831161162357829003601f168201915b505050505081565b6000600960009054906101000a900473ffffffffffffffffffffffffffffffffffffffff1673ffffffffffffffffffffffffffffffffffffffff166370a08231336040518263ffffffff1660e01b81526004016116a5919061251b565b60206040518083038186803b1580156116bd57600080fd5b505afa1580156116d1573d6000803e3d6000fd5b505050506040513d601f19601f820116820180604052508101906116f591906127f3565b905090565b600a60009054906101000a900473ffffffffffffffffffffffffffffffffffffffff1673ffffffffffffffffffffffffffffffffffffffff163373ffffffffffffffffffffffffffffffffffffffff161461175457600080fd5b600060028111156117685761176761256e565b5b600e60009054906101000a900460ff16600281111561178a5761178961256e565b5b1461179457600080fd5b6001600e60006101000a81548160ff021916908360028111156117ba576117b961256e565b5b0217905550565b600a60009054906101000a900473ffffffffffffffffffffffffffffffffffffffff1681565b60055481565b60045481565b600060019054906101000a900461ffff1681565b600c60009054906101000a900473ffffffffffffffffffffffffffffffffffffffff1681565b6000600860003373ffffffffffffffffffffffffffffffffffffffff1673ffffffffffffffffffffffffffffffffffffffff168152602001908152602001600020541161187957600080fd5b6000600960009054906101000a900473ffffffffffffffffffffffffffffffffffffffff1673ffffffffffffffffffffffffffffffffffffffff166370a08231336040518263ffffffff1660e01b81526004016118d6919061251b565b60206040518083038186803b1580156118ee57600080fd5b505afa158015611902573d6000803e3d6000fd5b505050506040513d601f19601f8201168201806040525081019061192691906127f3565b1161193057600080fd5b600354421161193e57600080fd5b600060028111156119525761195161256e565b5b600e60009054906101000a900460ff1660028111156119745761197361256e565b5b1461197e57600080fd5b600454600154106119c4576040517f08c379a00000000000000000000000000000000000000000000000000000000081526004016119bb90612ad9565b60405180910390fd5b3373ffffffffffffffffffffffffffffffffffffffff166108fc600860003373ffffffffffffffffffffffffffffffffffffffff1673ffffffffffffffffffffffffffffffffffffffff168152602001908152602001600020549081150290604051600060405180830381858888f19350505050158015611a49573d6000803e3d6000fd5b506000600860003373ffffffffffffffffffffffffffffffffffffffff1673ffffffffffffffffffffffffffffffffffffffff16815260200190815260200160002081905550565b6000600960009054906101000a900473ffffffffffffffffffffffffffffffffffffffff1673ffffffffffffffffffffffffffffffffffffffff166370a08231336040518263ffffffff1660e01b8152600401611aee919061251b565b60206040518083038186803b158015611b0657600080fd5b505afa158015611b1a573d6000803e3d6000fd5b505050506040513d601f19601f82011682018060405250810190611b3e91906127f3565b11611b4857600080fd5b6003544211611b5657600080fd5b60006002811115611b6a57611b6961256e565b5b600e60009054906101000a900460ff166002811115611b8c57611b8b61256e565b5b14611b9657600080fd5b600060079054906101000a900460ff16611be5576040517f08c379a0000000000000000000000000000000000000000000000000000000008152600401611bdc90612b6b565b60405180910390fd5b6000600181819054906101000a900461ffff1680929190611c05906128e5565b91906101000a81548161ffff021916908361ffff16021790555050565b600b60009054906101000a900473ffffffffffffffffffffffffffffffffffffffff1681565b60015481565b600a60009054906101000a900473ffffffffffffffffffffffffffffffffffffffff1673ffffffffffffffffffffffffffffffffffffffff163373ffffffffffffffffffffffffffffffffffffffff1614611ca857600080fd5b600280811115611cbb57611cba61256e565b5b600e60009054906101000a900460ff166002811115611cdd57611cdc61256e565b5b1415611ce857600080fd5b6002600060039054906101000a900463ffffffff16611d079190612a25565b63ffffffff16600060019054906101000a900461ffff1661ffff1611611d2c57600080fd5b600a60009054906101000a900473ffffffffffffffffffffffffffffffffffffffff1673ffffffffffffffffffffffffffffffffffffffff166108fc479081150290604051600060405180830381858888f19350505050158015611d94573d6000803e3d6000fd5b506002600e60006101000a81548160ff02191690836002811115611dbb57611dba61256e565b5b0217905550611dc8611e19565b7f94942738dac5813db86bc09e12c382aaa6824a675cfd6f834a8e2d5a964ac3c4600060039054906101000a900463ffffffff1660015442604051611e0f93929190612bc6565b60405180910390a1565b600a60009054906101000a900473ffffffffffffffffffffffffffffffffffffffff1673ffffffffffffffffffffffffffffffffffffffff163373ffffffffffffffffffffffffffffffffffffffff1614611e7357600080fd5b600280811115611e8657611e8561256e565b5b600e60009054906101000a900460ff166002811115611ea857611ea761256e565b5b14611eb257600080fd5b600960009054906101000a900473ffffffffffffffffffffffffffffffffffffffff1673ffffffffffffffffffffffffffffffffffffffff166323b872dd600b60009054906101000a900473ffffffffffffffffffffffffffffffffffffffff16600a60009054906101000a900473ffffffffffffffffffffffffffffffffffffffff16600960009054906101000a900473ffffffffffffffffffffffffffffffffffffffff1673ffffffffffffffffffffffffffffffffffffffff166370a08231600b60009054906101000a900473ffffffffffffffffffffffffffffffffffffffff166040518263ffffffff1660e01b8152600401611fb3919061251b565b60206040518083038186803b158015611fcb57600080fd5b505afa158015611fdf573d6000803e3d6000fd5b505050506040513d601f19601f8201168201806040525081019061200391906127f3565b6040518463ffffffff1660e01b815260040161202193929190612820565b602060405180830381600087803b15801561203b57600080fd5b505af115801561204f573d6000803e3d6000fd5b505050506040513d601f19601f82011682018060405250810190612073919061288f565b50565b828054612082906129f3565b90600052602060002090601f0160209004810192826120a457600085556120eb565b82601f106120bd57805160ff19168380011785556120eb565b828001600101855582156120eb579182015b828111156120ea5782518255916020019190600101906120cf565b5b5090506120f891906120fc565b5090565b5b808211156121155760008160009055506001016120fd565b5090565b6000604051905090565b600080fd5b600080fd5b6000819050919050565b6121408161212d565b811461214b57600080fd5b50565b60008135905061215d81612137565b92915050565b60006020828403121561217957612178612123565b5b60006121878482850161214e565b91505092915050565b600080fd5b600080fd5b6000601f19601f8301169050919050565b7f4e487b7100000000000000000000000000000000000000000000000000000000600052604160045260246000fd5b6121e38261219a565b810181811067ffffffffffffffff82111715612202576122016121ab565b5b80604052505050565b6000612215612119565b905061222182826121da565b919050565b600067ffffffffffffffff821115612241576122406121ab565b5b61224a8261219a565b9050602081019050919050565b82818337600083830152505050565b600061227961227484612226565b61220b565b90508281526020810184848401111561229557612294612195565b5b6122a0848285612257565b509392505050565b600082601f8301126122bd576122bc612190565b5b81356122cd848260208601612266565b91505092915050565b600073ffffffffffffffffffffffffffffffffffffffff82169050919050565b6000612301826122d6565b9050919050565b612311816122f6565b811461231c57600080fd5b50565b60008135905061232e81612308565b92915050565b60008060006060848603121561234d5761234c612123565b5b600084013567ffffffffffffffff81111561236b5761236a612128565b5b612377868287016122a8565b93505060206123888682870161214e565b92505060406123998682870161231f565b9150509250925092565b6000602082840312156123b9576123b8612123565b5b600082013567ffffffffffffffff8111156123d7576123d6612128565b5b6123e3848285016122a8565b91505092915050565b6123f58161212d565b82525050565b600060208201905061241060008301846123ec565b92915050565b600081519050919050565b600082825260208201905092915050565b60005b83811015612450578082015181840152602081019050612435565b8381111561245f576000848401525b50505050565b600061247082612416565b61247a8185612421565b935061248a818560208601612432565b6124938161219a565b840191505092915050565b600060208201905081810360008301526124b88184612465565b905092915050565b600063ffffffff82169050919050565b6124d9816124c0565b82525050565b60006020820190506124f460008301846124d0565b92915050565b6000612505826122d6565b9050919050565b612515816124fa565b82525050565b6000602082019050612530600083018461250c565b92915050565b600061ffff82169050919050565b61254d81612536565b82525050565b60006020820190506125686000830184612544565b92915050565b7f4e487b7100000000000000000000000000000000000000000000000000000000600052602160045260246000fd5b7f416d6f756e74206d757374206265206869676865720000000000000000000000600082015250565b60006125d3601583612421565b91506125de8261259d565b602082019050919050565b60006020820190508181036000830152612602816125c6565b9050919050565b7f4e487b7100000000000000000000000000000000000000000000000000000000600052601260045260246000fd5b60006126438261212d565b915061264e8361212d565b92508261265e5761265d612609565b5b828206905092915050565b7f56616c7565206d7573742062652061206d756c7469706c65206f66206d696e6960008201527f6d756d20616d6f756e7400000000000000000000000000000000000000000000602082015250565b60006126c5602a83612421565b91506126d082612669565b604082019050919050565b600060208201905081810360008301526126f4816126b8565b9050919050565b7f4e487b7100000000000000000000000000000000000000000000000000000000600052601160045260246000fd5b6000612735826124c0565b915063ffffffff82141561274c5761274b6126fb565b5b600182019050919050565b60006127628261212d565b915061276d8361212d565b9250827fffffffffffffffffffffffffffffffffffffffffffffffffffffffffffffffff038211156127a2576127a16126fb565b5b828201905092915050565b60006127b88261212d565b91506127c38361212d565b9250826127d3576127d2612609565b5b828204905092915050565b6000815190506127ed81612137565b92915050565b60006020828403121561280957612808612123565b5b6000612817848285016127de565b91505092915050565b6000606082019050612835600083018661250c565b612842602083018561250c565b61284f60408301846123ec565b949350505050565b60008115159050919050565b61286c81612857565b811461287757600080fd5b50565b60008151905061288981612863565b92915050565b6000602082840312156128a5576128a4612123565b5b60006128b38482850161287a565b91505092915050565b60006040820190506128d1600083018561250c565b6128de60208301846123ec565b9392505050565b60006128f082612536565b915061ffff821415612905576129046126fb565b5b600182019050919050565b600060ff82169050919050565b600061292882612910565b915060ff82141561293c5761293b6126fb565b5b600182019050919050565b612950816122f6565b82525050565b600060608201905081810360008301526129708186612465565b905061297f60208301856123ec565b61298c6040830184612947565b949350505050565b60006040820190506129a960008301856123ec565b81810360208301526129bb8184612465565b90509392505050565b7f4e487b7100000000000000000000000000000000000000000000000000000000600052602260045260246000fd5b60006002820490506001821680612a0b57607f821691505b60208210811415612a1f57612a1e6129c4565b5b50919050565b6000612a30826124c0565b9150612a3b836124c0565b925082612a4b57612a4a612609565b5b828204905092915050565b6000606082019050612a6b60008301866123ec565b612a786020830185612947565b612a8560408301846123ec565b949350505050565b7f54617267657420616d6f756e7420686173206265656e206d6574000000000000600082015250565b6000612ac3601a83612421565b9150612ace82612a8d565b602082019050919050565b60006020820190508181036000830152612af281612ab6565b9050919050565b7f566f74696e6720666f722073616c6520656e6420686173206e6f74207374617260008201527f7465642079657400000000000000000000000000000000000000000000000000602082015250565b6000612b55602783612421565b9150612b6082612af9565b604082019050919050565b60006020820190508181036000830152612b8481612b48565b9050919050565b6000819050919050565b6000612bb0612bab612ba6846124c0565b612b8b565b61212d565b9050919050565b612bc081612b95565b82525050565b6000606082019050612bdb6000830186612bb7565b612be860208301856123ec565b612bf560408301846123ec565b94935050505056fea264697066735822122061367ecf1272be4399eee5033a317e3a21bc2675a1a1ea6b5a3af4e6f17f9b1864736f6c63430008090033",
  "immutableReferences": {},
  "source": "// SPDX-License-Identifier: GPL-3.0\r\npragma solidity 0.8.9;\r\nimport \"./TokenContract.sol\";\r\n\r\ncontract Crowdsale{\r\n    uint8 reqCounter;\r\n    uint16 public endVotes;\r\n    uint32 public contributors;\r\n    bool requestEnd;\r\n    uint public raisedAmount;\r\n    uint public startingTime;\r\n    uint public endingTime;\r\n    uint public targetAmount;\r\n    uint public minimumContribution;\r\n    string public title; \r\n    string public description; \r\n    \r\n    mapping(address=>uint) contributedAmount;\r\n    struct Request{\r\n        string description;\r\n        uint amount;\r\n        address payable recipient;\r\n        mapping(address => bool) votes;\r\n        uint16 voteCount;\r\n        bool completed;\r\n    }\r\n    \r\n    TokenContract token;\r\n    address public owner;\r\n    address public factory;\r\n    address public tokenAddress;\r\n    mapping(uint => Request) requests;\r\n    enum State {RUNNING, PAUSED, ENDED}\r\n    State currentState;\r\n\r\n    event Contribution(address _from, uint _amount);\r\n    event RequestMade(string _description, uint _amount, address payable _recipient);\r\n    event Payment(uint index, address payable _recipient, uint _amount);\r\n    event EndRequest(uint _time, string _reason);\r\n    event Ended(uint _contributors, uint _raisedAmount, uint _endTime);\r\n\r\n    constructor(string memory _title, string memory _description, uint _targetAmount, uint _minimumContribution, address _owner, TokenContract _token){\r\n        owner = _owner;\r\n        startingTime = block.timestamp;\r\n        endingTime = startingTime + 4 weeks;\r\n        targetAmount = _targetAmount;\r\n        minimumContribution = _minimumContribution;\r\n        title = _title;\r\n        description = _description;\r\n        token = _token;\r\n        tokenAddress = address(token);\r\n        factory = msg.sender;\r\n        currentState = State.RUNNING;\r\n    }\r\n    \r\n    modifier onlyOwner{\r\n        require(msg.sender == owner);\r\n        _;\r\n    }\r\n    modifier goalMet{\r\n        require(raisedAmount>targetAmount);\r\n        _;\r\n    }\r\n    modifier timeMet{\r\n        require(block.timestamp>endingTime);\r\n        _;\r\n    }\r\n    modifier isContributor{\r\n        require(contributedAmount[msg.sender]>0);\r\n        _;\r\n    }\r\n    modifier tokenHolder{\r\n        require(token.balanceOf(msg.sender)>0);\r\n        _;\r\n    }\r\n    modifier saleActive{\r\n        require(currentState == State.RUNNING);\r\n        _;\r\n    }\r\n    modifier saleEnd{\r\n        require(currentState == State.ENDED);\r\n        _;\r\n    }\r\n    receive() external payable{\r\n        contribute();\r\n    }\r\n\r\n    function contribute() public payable saleActive{\r\n        require(msg.sender != owner && msg.value>=minimumContribution, \"Amount must be higher\");\r\n        require(msg.value % minimumContribution == 0, \"Value must be a multiple of minimum amount\");\r\n        if(contributedAmount[msg.sender] == 0){\r\n            contributors++;\r\n        }\r\n        contributedAmount[msg.sender] += msg.value;\r\n        raisedAmount += msg.value;\r\n        if(token.balanceOf(factory)>=msg.value/minimumContribution){\r\n            token.transferFrom(factory, msg.sender, msg.value/minimumContribution);\r\n        }else if(token.balanceOf(factory)<msg.value/minimumContribution && token.balanceOf(factory)>0){\r\n            token.transferFrom(factory, msg.sender, token.balanceOf(factory));\r\n        }\r\n        emit Contribution(msg.sender, msg.value);\r\n    }\r\n    \r\n    function getTokenBalance() public view returns (uint){\r\n        return token.balanceOf(msg.sender);\r\n    }\r\n\r\n    function getRefund() public isContributor tokenHolder timeMet saleActive{\r\n        require(raisedAmount<targetAmount, \"Target amount has been met\");\r\n        payable(msg.sender).transfer(contributedAmount[msg.sender]);\r\n        contributedAmount[msg.sender] = 0;\r\n    }\r\n\r\n    function makeRequest(string memory _description, uint _amount, address payable _recipient) public onlyOwner goalMet timeMet saleActive{\r\n        Request storage newRequest = requests[reqCounter];\r\n        newRequest.description = _description;\r\n        newRequest.amount = _amount;\r\n        newRequest.recipient = _recipient;\r\n        reqCounter++;\r\n        emit RequestMade(_description, _amount, _recipient);\r\n    }\r\n\r\n    function vote(uint _index) public tokenHolder goalMet timeMet saleActive{\r\n        Request storage approveRequest = requests[_index];\r\n        require(approveRequest.votes[msg.sender] == false);\r\n        approveRequest.voteCount++;\r\n        approveRequest.votes[msg.sender] = true;\r\n    }\r\n    \r\n    function tokensAvailable() public view returns (uint){\r\n        return token.balanceOf(factory);\r\n    }\r\n    \r\n    function makePayment(uint _index) public onlyOwner goalMet timeMet saleActive{\r\n        Request storage approveRequest = requests[_index];\r\n        require(approveRequest.completed == false);\r\n        require(approveRequest.voteCount >= contributors/2);\r\n        approveRequest.recipient.transfer(approveRequest.amount);\r\n        approveRequest.completed = true;\r\n        emit Payment(_index, approveRequest.recipient, approveRequest.amount);\r\n    } \r\n\r\n    function _withdrawRemainingTokens() private onlyOwner saleEnd{\r\n        token.transferFrom(factory, owner, token.balanceOf(factory));\r\n    }\r\n\r\n    function pause() public onlyOwner saleActive{\r\n        currentState = State.PAUSED;\r\n    }\r\n\r\n    function resume() public onlyOwner{\r\n        require(currentState == State.PAUSED);\r\n        currentState = State.RUNNING;\r\n    }\r\n\r\n    function endVote() public tokenHolder timeMet saleActive{\r\n        require(requestEnd, \"Voting for sale end has not started yet\");\r\n        endVotes++;\r\n    }\r\n\r\n    function endRequest(string memory _reason) public onlyOwner timeMet saleActive{\r\n        requestEnd = true;\r\n        emit EndRequest(block.timestamp, _reason);\r\n    }\r\n\r\n    function end() public onlyOwner {\r\n        require(currentState != State.ENDED);\r\n        require(endVotes > (contributors/2));\r\n        payable(owner).transfer(address(this).balance);\r\n        currentState = State.ENDED;\r\n        _withdrawRemainingTokens();\r\n        emit Ended(contributors, raisedAmount, block.timestamp);\r\n    }\r\n}",
  "sourcePath": "D:\\Projects\\Crowdfunding\\contracts\\Crowdsale.sol",
  "compiler": {
    "name": "solc",
    "version": "0.8.9+commit.e5eed63a.Emscripten.clang"
  },
  "schemaVersion": "3.4.3",
  "updatedAt": "2021-10-28T09:09:11.058Z",
  "devdoc": {
    "kind": "dev",
    "methods": {},
    "version": 1
  },
  "userdoc": {
    "kind": "user",
    "methods": {},
    "version": 1
  }
}