{
  "contractName": "Factory",
  "abi": [
    {
      "inputs": [
        {
          "internalType": "uint256",
          "name": "",
          "type": "uint256"
        }
      ],
      "name": "deployedSales",
      "outputs": [
        {
          "internalType": "address",
          "name": "",
          "type": "address"
        }
      ],
      "stateMutability": "view",
      "type": "function",
      "constant": true
    },
    {
      "inputs": [
        {
          "internalType": "string",
          "name": "_title",
          "type": "string"
        },
        {
          "internalType": "string",
          "name": "_description",
          "type": "string"
        },
        {
          "internalType": "uint256",
          "name": "_target",
          "type": "uint256"
        },
        {
          "internalType": "uint256",
          "name": "_minimum",
          "type": "uint256"
        },
        {
          "internalType": "string",
          "name": "_tokenName",
          "type": "string"
        },
        {
          "internalType": "string",
          "name": "_tokenSymbol",
          "type": "string"
        },
        {
          "internalType": "uint256",
          "name": "_tokenAmount",
          "type": "uint256"
        }
      ],
      "name": "createSale",
      "outputs": [],
      "stateMutability": "nonpayable",
      "type": "function"
    },
    {
      "inputs": [],
      "name": "getDeployedSales",
      "outputs": [
        {
          "internalType": "address[]",
          "name": "",
          "type": "address[]"
        }
      ],
      "stateMutability": "view",
      "type": "function",
      "constant": true
    },
    {
      "inputs": [
        {
          "internalType": "address",
          "name": "_crowdsale",
          "type": "address"
        }
      ],
      "name": "getTokenAddress",
      "outputs": [
        {
          "internalType": "address",
          "name": "",
          "type": "address"
        }
      ],
      "stateMutability": "view",
      "type": "function",
      "constant": true
    }
  ],
  "bytecode": "0x608060405234801561001057600080fd5b50615d21806100206000396000f3fe60806040523480156200001157600080fd5b5060043610620000525760003560e01c80632ddccf95146200005757806347bd32f0146200008d578063b771ad1714620000af578063b8d7b66914620000cf575b600080fd5b6200007560048036038101906200006f9190620004b1565b62000105565b60405162000084919062000528565b60405180910390f35b6200009762000145565b604051620000a6919062000613565b60405180910390f35b620000cd6004803603810190620000c7919062000799565b620001d5565b005b620000ed6004803603810190620000e79190620008f9565b620003dd565b604051620000fc919062000528565b60405180910390f35b600081815481106200011657600080fd5b906000526020600020016000915054906101000a900473ffffffffffffffffffffffffffffffffffffffff1681565b60606000805480602002602001604051908101604052809291908181526020018280548015620001cb57602002820191906000526020600020905b8160009054906101000a900473ffffffffffffffffffffffffffffffffffffffff1673ffffffffffffffffffffffffffffffffffffffff168152602001906001019080831162000180575b5050505050905090565b6000838383604051620001e89062000446565b620001f693929190620009cf565b604051809103906000f08015801562000213573d6000803e3d6000fd5b50905060008888888833866040516200022c9062000454565b6200023d9695949392919062000a85565b604051809103906000f0801580156200025a573d6000803e3d6000fd5b5090508173ffffffffffffffffffffffffffffffffffffffff1663095ea7b382856040518363ffffffff1660e01b81526004016200029a92919062000b00565b602060405180830381600087803b158015620002b557600080fd5b505af1158015620002ca573d6000803e3d6000fd5b505050506040513d601f19601f82011682018060405250810190620002f0919062000b6a565b5081600160008373ffffffffffffffffffffffffffffffffffffffff1673ffffffffffffffffffffffffffffffffffffffff16815260200190815260200160002060006101000a81548173ffffffffffffffffffffffffffffffffffffffff021916908373ffffffffffffffffffffffffffffffffffffffff1602179055506000819080600181540180825580915050600190039060005260206000200160009091909190916101000a81548173ffffffffffffffffffffffffffffffffffffffff021916908373ffffffffffffffffffffffffffffffffffffffff160217905550505050505050505050565b6000600160008373ffffffffffffffffffffffffffffffffffffffff1673ffffffffffffffffffffffffffffffffffffffff16815260200190815260200160002060009054906101000a900473ffffffffffffffffffffffffffffffffffffffff169050919050565b611de98062000b9d83390190565b613366806200298683390190565b6000604051905090565b600080fd5b600080fd5b6000819050919050565b6200048b8162000476565b81146200049757600080fd5b50565b600081359050620004ab8162000480565b92915050565b600060208284031215620004ca57620004c96200046c565b5b6000620004da848285016200049a565b91505092915050565b600073ffffffffffffffffffffffffffffffffffffffff82169050919050565b60006200051082620004e3565b9050919050565b620005228162000503565b82525050565b60006020820190506200053f600083018462000517565b92915050565b600081519050919050565b600082825260208201905092915050565b6000819050602082019050919050565b6200057c8162000503565b82525050565b600062000590838362000571565b60208301905092915050565b6000602082019050919050565b6000620005b68262000545565b620005c2818562000550565b9350620005cf8362000561565b8060005b8381101562000606578151620005ea888262000582565b9750620005f7836200059c565b925050600181019050620005d3565b5085935050505092915050565b600060208201905081810360008301526200062f8184620005a9565b905092915050565b600080fd5b600080fd5b6000601f19601f8301169050919050565b7f4e487b7100000000000000000000000000000000000000000000000000000000600052604160045260246000fd5b6200068c8262000641565b810181811067ffffffffffffffff82111715620006ae57620006ad62000652565b5b80604052505050565b6000620006c362000462565b9050620006d1828262000681565b919050565b600067ffffffffffffffff821115620006f457620006f362000652565b5b620006ff8262000641565b9050602081019050919050565b82818337600083830152505050565b6000620007326200072c84620006d6565b620006b7565b9050828152602081018484840111156200075157620007506200063c565b5b6200075e8482856200070c565b509392505050565b600082601f8301126200077e576200077d62000637565b5b8135620007908482602086016200071b565b91505092915050565b600080600080600080600060e0888a031215620007bb57620007ba6200046c565b5b600088013567ffffffffffffffff811115620007dc57620007db62000471565b5b620007ea8a828b0162000766565b975050602088013567ffffffffffffffff8111156200080e576200080d62000471565b5b6200081c8a828b0162000766565b96505060406200082f8a828b016200049a565b9550506060620008428a828b016200049a565b945050608088013567ffffffffffffffff81111562000866576200086562000471565b5b620008748a828b0162000766565b93505060a088013567ffffffffffffffff81111562000898576200089762000471565b5b620008a68a828b0162000766565b92505060c0620008b98a828b016200049a565b91505092959891949750929550565b620008d38162000503565b8114620008df57600080fd5b50565b600081359050620008f381620008c8565b92915050565b6000602082840312156200091257620009116200046c565b5b60006200092284828501620008e2565b91505092915050565b600081519050919050565b600082825260208201905092915050565b60005b83811015620009675780820151818401526020810190506200094a565b8381111562000977576000848401525b50505050565b60006200098a826200092b565b62000996818562000936565b9350620009a881856020860162000947565b620009b38162000641565b840191505092915050565b620009c98162000476565b82525050565b60006060820190508181036000830152620009eb81866200097d565b9050818103602083015262000a0181856200097d565b905062000a126040830184620009be565b949350505050565b6000819050919050565b600062000a4562000a3f62000a3984620004e3565b62000a1a565b620004e3565b9050919050565b600062000a598262000a24565b9050919050565b600062000a6d8262000a4c565b9050919050565b62000a7f8162000a60565b82525050565b600060c082019050818103600083015262000aa181896200097d565b9050818103602083015262000ab781886200097d565b905062000ac86040830187620009be565b62000ad76060830186620009be565b62000ae6608083018562000517565b62000af560a083018462000a74565b979650505050505050565b600060408201905062000b17600083018562000517565b62000b266020830184620009be565b9392505050565b60008115159050919050565b62000b448162000b2d565b811462000b5057600080fd5b50565b60008151905062000b648162000b39565b92915050565b60006020828403121562000b835762000b826200046c565b5b600062000b938482850162000b53565b9150509291505056fe60806040523480156200001157600080fd5b5060405162001de938038062001de9833981810160405281019062000037919062000493565b82828160039080519060200190620000519291906200020b565b5080600490805190602001906200006a9291906200020b565b5050506200007f33826200008860201b60201c565b505050620006cf565b600073ffffffffffffffffffffffffffffffffffffffff168273ffffffffffffffffffffffffffffffffffffffff161415620000fb576040517f08c379a0000000000000000000000000000000000000000000000000000000008152600401620000f2906200058e565b60405180910390fd5b6200010f600083836200020160201b60201c565b8060026000828254620001239190620005df565b92505081905550806000808473ffffffffffffffffffffffffffffffffffffffff1673ffffffffffffffffffffffffffffffffffffffff16815260200190815260200160002060008282546200017a9190620005df565b925050819055508173ffffffffffffffffffffffffffffffffffffffff16600073ffffffffffffffffffffffffffffffffffffffff167fddf252ad1be2c89b69c2b068fc378daa952ba7f163c4a11628f55a4df523b3ef83604051620001e191906200064d565b60405180910390a3620001fd600083836200020660201b60201c565b5050565b505050565b505050565b828054620002199062000699565b90600052602060002090601f0160209004810192826200023d576000855562000289565b82601f106200025857805160ff191683800117855562000289565b8280016001018555821562000289579182015b82811115620002885782518255916020019190600101906200026b565b5b5090506200029891906200029c565b5090565b5b80821115620002b75760008160009055506001016200029d565b5090565b6000604051905090565b600080fd5b600080fd5b600080fd5b600080fd5b6000601f19601f8301169050919050565b7f4e487b7100000000000000000000000000000000000000000000000000000000600052604160045260246000fd5b6200032482620002d9565b810181811067ffffffffffffffff82111715620003465762000345620002ea565b5b80604052505050565b60006200035b620002bb565b905062000369828262000319565b919050565b600067ffffffffffffffff8211156200038c576200038b620002ea565b5b6200039782620002d9565b9050602081019050919050565b60005b83811015620003c4578082015181840152602081019050620003a7565b83811115620003d4576000848401525b50505050565b6000620003f1620003eb846200036e565b6200034f565b90508281526020810184848401111562000410576200040f620002d4565b5b6200041d848285620003a4565b509392505050565b600082601f8301126200043d576200043c620002cf565b5b81516200044f848260208601620003da565b91505092915050565b6000819050919050565b6200046d8162000458565b81146200047957600080fd5b50565b6000815190506200048d8162000462565b92915050565b600080600060608486031215620004af57620004ae620002c5565b5b600084015167ffffffffffffffff811115620004d057620004cf620002ca565b5b620004de8682870162000425565b935050602084015167ffffffffffffffff811115620005025762000501620002ca565b5b620005108682870162000425565b925050604062000523868287016200047c565b9150509250925092565b600082825260208201905092915050565b7f45524332303a206d696e7420746f20746865207a65726f206164647265737300600082015250565b600062000576601f836200052d565b915062000583826200053e565b602082019050919050565b60006020820190508181036000830152620005a98162000567565b9050919050565b7f4e487b7100000000000000000000000000000000000000000000000000000000600052601160045260246000fd5b6000620005ec8262000458565b9150620005f98362000458565b9250827fffffffffffffffffffffffffffffffffffffffffffffffffffffffffffffffff03821115620006315762000630620005b0565b5b828201905092915050565b620006478162000458565b82525050565b60006020820190506200066460008301846200063c565b92915050565b7f4e487b7100000000000000000000000000000000000000000000000000000000600052602260045260246000fd5b60006002820490506001821680620006b257607f821691505b60208210811415620006c957620006c86200066a565b5b50919050565b61170a80620006df6000396000f3fe608060405234801561001057600080fd5b50600436106100b45760003560e01c806370a082311161007157806370a08231146101a357806395d89b41146101d35780639dc29fac146101f1578063a457c2d71461020d578063a9059cbb1461023d578063dd62ed3e1461026d576100b4565b806306fdde03146100b9578063095ea7b3146100d757806318160ddd1461010757806323b872dd14610125578063313ce567146101555780633950935114610173575b600080fd5b6100c161029d565b6040516100ce9190610e46565b60405180910390f35b6100f160048036038101906100ec9190610f01565b61032f565b6040516100fe9190610f5c565b60405180910390f35b61010f61034d565b60405161011c9190610f86565b60405180910390f35b61013f600480360381019061013a9190610fa1565b610357565b60405161014c9190610f5c565b60405180910390f35b61015d61044f565b60405161016a9190611010565b60405180910390f35b61018d60048036038101906101889190610f01565b610454565b60405161019a9190610f5c565b60405180910390f35b6101bd60048036038101906101b8919061102b565b610500565b6040516101ca9190610f86565b60405180910390f35b6101db610548565b6040516101e89190610e46565b60405180910390f35b61020b60048036038101906102069190610f01565b6105da565b005b61022760048036038101906102229190610f01565b6105e8565b6040516102349190610f5c565b60405180910390f35b61025760048036038101906102529190610f01565b6106d3565b6040516102649190610f5c565b60405180910390f35b61028760048036038101906102829190611058565b6106f1565b6040516102949190610f86565b60405180910390f35b6060600380546102ac906110c7565b80601f01602080910402602001604051908101604052809291908181526020018280546102d8906110c7565b80156103255780601f106102fa57610100808354040283529160200191610325565b820191906000526020600020905b81548152906001019060200180831161030857829003601f168201915b5050505050905090565b600061034361033c610778565b8484610780565b6001905092915050565b6000600254905090565b600061036484848461094b565b6000600160008673ffffffffffffffffffffffffffffffffffffffff1673ffffffffffffffffffffffffffffffffffffffff16815260200190815260200160002060006103af610778565b73ffffffffffffffffffffffffffffffffffffffff1673ffffffffffffffffffffffffffffffffffffffff1681526020019081526020016000205490508281101561042f576040517f08c379a00000000000000000000000000000000000000000000000000000000081526004016104269061116b565b60405180910390fd5b6104438561043b610778565b858403610780565b60019150509392505050565b600090565b60006104f6610461610778565b84846001600061046f610778565b73ffffffffffffffffffffffffffffffffffffffff1673ffffffffffffffffffffffffffffffffffffffff16815260200190815260200160002060008873ffffffffffffffffffffffffffffffffffffffff1673ffffffffffffffffffffffffffffffffffffffff168152602001908152602001600020546104f191906111ba565b610780565b6001905092915050565b60008060008373ffffffffffffffffffffffffffffffffffffffff1673ffffffffffffffffffffffffffffffffffffffff168152602001908152602001600020549050919050565b606060048054610557906110c7565b80601f0160208091040260200160405190810160405280929190818152602001828054610583906110c7565b80156105d05780601f106105a5576101008083540402835291602001916105d0565b820191906000526020600020905b8154815290600101906020018083116105b357829003601f168201915b5050505050905090565b6105e48282610bcc565b5050565b600080600160006105f7610778565b73ffffffffffffffffffffffffffffffffffffffff1673ffffffffffffffffffffffffffffffffffffffff16815260200190815260200160002060008573ffffffffffffffffffffffffffffffffffffffff1673ffffffffffffffffffffffffffffffffffffffff168152602001908152602001600020549050828110156106b4576040517f08c379a00000000000000000000000000000000000000000000000000000000081526004016106ab90611282565b60405180910390fd5b6106c86106bf610778565b85858403610780565b600191505092915050565b60006106e76106e0610778565b848461094b565b6001905092915050565b6000600160008473ffffffffffffffffffffffffffffffffffffffff1673ffffffffffffffffffffffffffffffffffffffff16815260200190815260200160002060008373ffffffffffffffffffffffffffffffffffffffff1673ffffffffffffffffffffffffffffffffffffffff16815260200190815260200160002054905092915050565b600033905090565b600073ffffffffffffffffffffffffffffffffffffffff168373ffffffffffffffffffffffffffffffffffffffff1614156107f0576040517f08c379a00000000000000000000000000000000000000000000000000000000081526004016107e790611314565b60405180910390fd5b600073ffffffffffffffffffffffffffffffffffffffff168273ffffffffffffffffffffffffffffffffffffffff161415610860576040517f08c379a0000000000000000000000000000000000000000000000000000000008152600401610857906113a6565b60405180910390fd5b80600160008573ffffffffffffffffffffffffffffffffffffffff1673ffffffffffffffffffffffffffffffffffffffff16815260200190815260200160002060008473ffffffffffffffffffffffffffffffffffffffff1673ffffffffffffffffffffffffffffffffffffffff168152602001908152602001600020819055508173ffffffffffffffffffffffffffffffffffffffff168373ffffffffffffffffffffffffffffffffffffffff167f8c5be1e5ebec7d5bd14f71427d1e84f3dd0314c0f7b2291e5b200ac8c7c3b9258360405161093e9190610f86565b60405180910390a3505050565b600073ffffffffffffffffffffffffffffffffffffffff168373ffffffffffffffffffffffffffffffffffffffff1614156109bb576040517f08c379a00000000000000000000000000000000000000000000000000000000081526004016109b290611438565b60405180910390fd5b600073ffffffffffffffffffffffffffffffffffffffff168273ffffffffffffffffffffffffffffffffffffffff161415610a2b576040517f08c379a0000000000000000000000000000000000000000000000000000000008152600401610a22906114ca565b60405180910390fd5b610a36838383610da3565b60008060008573ffffffffffffffffffffffffffffffffffffffff1673ffffffffffffffffffffffffffffffffffffffff16815260200190815260200160002054905081811015610abc576040517f08c379a0000000000000000000000000000000000000000000000000000000008152600401610ab39061155c565b60405180910390fd5b8181036000808673ffffffffffffffffffffffffffffffffffffffff1673ffffffffffffffffffffffffffffffffffffffff16815260200190815260200160002081905550816000808573ffffffffffffffffffffffffffffffffffffffff1673ffffffffffffffffffffffffffffffffffffffff1681526020019081526020016000206000828254610b4f91906111ba565b925050819055508273ffffffffffffffffffffffffffffffffffffffff168473ffffffffffffffffffffffffffffffffffffffff167fddf252ad1be2c89b69c2b068fc378daa952ba7f163c4a11628f55a4df523b3ef84604051610bb39190610f86565b60405180910390a3610bc6848484610da8565b50505050565b600073ffffffffffffffffffffffffffffffffffffffff168273ffffffffffffffffffffffffffffffffffffffff161415610c3c576040517f08c379a0000000000000000000000000000000000000000000000000000000008152600401610c33906115ee565b60405180910390fd5b610c4882600083610da3565b60008060008473ffffffffffffffffffffffffffffffffffffffff1673ffffffffffffffffffffffffffffffffffffffff16815260200190815260200160002054905081811015610cce576040517f08c379a0000000000000000000000000000000000000000000000000000000008152600401610cc590611680565b60405180910390fd5b8181036000808573ffffffffffffffffffffffffffffffffffffffff1673ffffffffffffffffffffffffffffffffffffffff168152602001908152602001600020819055508160026000828254610d2591906116a0565b92505081905550600073ffffffffffffffffffffffffffffffffffffffff168373ffffffffffffffffffffffffffffffffffffffff167fddf252ad1be2c89b69c2b068fc378daa952ba7f163c4a11628f55a4df523b3ef84604051610d8a9190610f86565b60405180910390a3610d9e83600084610da8565b505050565b505050565b505050565b600081519050919050565b600082825260208201905092915050565b60005b83811015610de7578082015181840152602081019050610dcc565b83811115610df6576000848401525b50505050565b6000601f19601f8301169050919050565b6000610e1882610dad565b610e228185610db8565b9350610e32818560208601610dc9565b610e3b81610dfc565b840191505092915050565b60006020820190508181036000830152610e608184610e0d565b905092915050565b600080fd5b600073ffffffffffffffffffffffffffffffffffffffff82169050919050565b6000610e9882610e6d565b9050919050565b610ea881610e8d565b8114610eb357600080fd5b50565b600081359050610ec581610e9f565b92915050565b6000819050919050565b610ede81610ecb565b8114610ee957600080fd5b50565b600081359050610efb81610ed5565b92915050565b60008060408385031215610f1857610f17610e68565b5b6000610f2685828601610eb6565b9250506020610f3785828601610eec565b9150509250929050565b60008115159050919050565b610f5681610f41565b82525050565b6000602082019050610f716000830184610f4d565b92915050565b610f8081610ecb565b82525050565b6000602082019050610f9b6000830184610f77565b92915050565b600080600060608486031215610fba57610fb9610e68565b5b6000610fc886828701610eb6565b9350506020610fd986828701610eb6565b9250506040610fea86828701610eec565b9150509250925092565b600060ff82169050919050565b61100a81610ff4565b82525050565b60006020820190506110256000830184611001565b92915050565b60006020828403121561104157611040610e68565b5b600061104f84828501610eb6565b91505092915050565b6000806040838503121561106f5761106e610e68565b5b600061107d85828601610eb6565b925050602061108e85828601610eb6565b9150509250929050565b7f4e487b7100000000000000000000000000000000000000000000000000000000600052602260045260246000fd5b600060028204905060018216806110df57607f821691505b602082108114156110f3576110f2611098565b5b50919050565b7f45524332303a207472616e7366657220616d6f756e742065786365656473206160008201527f6c6c6f77616e6365000000000000000000000000000000000000000000000000602082015250565b6000611155602883610db8565b9150611160826110f9565b604082019050919050565b6000602082019050818103600083015261118481611148565b9050919050565b7f4e487b7100000000000000000000000000000000000000000000000000000000600052601160045260246000fd5b60006111c582610ecb565b91506111d083610ecb565b9250827fffffffffffffffffffffffffffffffffffffffffffffffffffffffffffffffff038211156112055761120461118b565b5b828201905092915050565b7f45524332303a2064656372656173656420616c6c6f77616e63652062656c6f7760008201527f207a65726f000000000000000000000000000000000000000000000000000000602082015250565b600061126c602583610db8565b915061127782611210565b604082019050919050565b6000602082019050818103600083015261129b8161125f565b9050919050565b7f45524332303a20617070726f76652066726f6d20746865207a65726f2061646460008201527f7265737300000000000000000000000000000000000000000000000000000000602082015250565b60006112fe602483610db8565b9150611309826112a2565b604082019050919050565b6000602082019050818103600083015261132d816112f1565b9050919050565b7f45524332303a20617070726f766520746f20746865207a65726f20616464726560008201527f7373000000000000000000000000000000000000000000000000000000000000602082015250565b6000611390602283610db8565b915061139b82611334565b604082019050919050565b600060208201905081810360008301526113bf81611383565b9050919050565b7f45524332303a207472616e736665722066726f6d20746865207a65726f20616460008201527f6472657373000000000000000000000000000000000000000000000000000000602082015250565b6000611422602583610db8565b915061142d826113c6565b604082019050919050565b6000602082019050818103600083015261145181611415565b9050919050565b7f45524332303a207472616e7366657220746f20746865207a65726f206164647260008201527f6573730000000000000000000000000000000000000000000000000000000000602082015250565b60006114b4602383610db8565b91506114bf82611458565b604082019050919050565b600060208201905081810360008301526114e3816114a7565b9050919050565b7f45524332303a207472616e7366657220616d6f756e742065786365656473206260008201527f616c616e63650000000000000000000000000000000000000000000000000000602082015250565b6000611546602683610db8565b9150611551826114ea565b604082019050919050565b6000602082019050818103600083015261157581611539565b9050919050565b7f45524332303a206275726e2066726f6d20746865207a65726f2061646472657360008201527f7300000000000000000000000000000000000000000000000000000000000000602082015250565b60006115d8602183610db8565b91506115e38261157c565b604082019050919050565b60006020820190508181036000830152611607816115cb565b9050919050565b7f45524332303a206275726e20616d6f756e7420657863656564732062616c616e60008201527f6365000000000000000000000000000000000000000000000000000000000000602082015250565b600061166a602283610db8565b91506116758261160e565b604082019050919050565b600060208201905081810360008301526116998161165d565b9050919050565b60006116ab82610ecb565b91506116b683610ecb565b9250828210156116c9576116c861118b565b5b82820390509291505056fea26469706673582212208c0d62b9d65d8fb8eac04faafc81437cc82ff16eed4a18cd1ee955817aa08f4464736f6c6343000809003360806040523480156200001157600080fd5b506040516200336638038062003366833981810160405281019062000037919062000529565b81600a60006101000a81548173ffffffffffffffffffffffffffffffffffffffff021916908373ffffffffffffffffffffffffffffffffffffffff160217905550426002819055506224ea0060025462000092919062000632565b60038190555083600481905550826005819055508560069080519060200190620000be929190620001f7565b508460079080519060200190620000d7929190620001f7565b5080600960006101000a81548173ffffffffffffffffffffffffffffffffffffffff021916908373ffffffffffffffffffffffffffffffffffffffff160217905550600960009054906101000a900473ffffffffffffffffffffffffffffffffffffffff16600c60006101000a81548173ffffffffffffffffffffffffffffffffffffffff021916908373ffffffffffffffffffffffffffffffffffffffff16021790555033600b60006101000a81548173ffffffffffffffffffffffffffffffffffffffff021916908373ffffffffffffffffffffffffffffffffffffffff1602179055506000600e60006101000a81548160ff02191690836002811115620001e657620001e56200068f565b5b021790555050505050505062000723565b8280546200020590620006ed565b90600052602060002090601f01602090048101928262000229576000855562000275565b82601f106200024457805160ff191683800117855562000275565b8280016001018555821562000275579182015b828111156200027457825182559160200191906001019062000257565b5b50905062000284919062000288565b5090565b5b80821115620002a357600081600090555060010162000289565b5090565b6000604051905090565b600080fd5b600080fd5b600080fd5b600080fd5b6000601f19601f8301169050919050565b7f4e487b7100000000000000000000000000000000000000000000000000000000600052604160045260246000fd5b6200031082620002c5565b810181811067ffffffffffffffff82111715620003325762000331620002d6565b5b80604052505050565b600062000347620002a7565b905062000355828262000305565b919050565b600067ffffffffffffffff821115620003785762000377620002d6565b5b6200038382620002c5565b9050602081019050919050565b60005b83811015620003b057808201518184015260208101905062000393565b83811115620003c0576000848401525b50505050565b6000620003dd620003d7846200035a565b6200033b565b905082815260208101848484011115620003fc57620003fb620002c0565b5b6200040984828562000390565b509392505050565b600082601f830112620004295762000428620002bb565b5b81516200043b848260208601620003c6565b91505092915050565b6000819050919050565b620004598162000444565b81146200046557600080fd5b50565b60008151905062000479816200044e565b92915050565b600073ffffffffffffffffffffffffffffffffffffffff82169050919050565b6000620004ac826200047f565b9050919050565b620004be816200049f565b8114620004ca57600080fd5b50565b600081519050620004de81620004b3565b92915050565b6000620004f1826200049f565b9050919050565b6200050381620004e4565b81146200050f57600080fd5b50565b6000815190506200052381620004f8565b92915050565b60008060008060008060c08789031215620005495762000548620002b1565b5b600087015167ffffffffffffffff8111156200056a5762000569620002b6565b5b6200057889828a0162000411565b965050602087015167ffffffffffffffff8111156200059c576200059b620002b6565b5b620005aa89828a0162000411565b9550506040620005bd89828a0162000468565b9450506060620005d089828a0162000468565b9350506080620005e389828a01620004cd565b92505060a0620005f689828a0162000512565b9150509295509295509295565b7f4e487b7100000000000000000000000000000000000000000000000000000000600052601160045260246000fd5b60006200063f8262000444565b91506200064c8362000444565b9250827fffffffffffffffffffffffffffffffffffffffffffffffffffffffffffffffff0382111562000684576200068362000603565b5b828201905092915050565b7f4e487b7100000000000000000000000000000000000000000000000000000000600052602160045260246000fd5b7f4e487b7100000000000000000000000000000000000000000000000000000000600052602260045260246000fd5b600060028204905060018216806200070657607f821691505b602082108114156200071d576200071c620006be565b5b50919050565b612c3380620007336000396000f3fe60806040526004361061014f5760003560e01c80638456cb59116100b6578063b2d5ae441161006f578063b2d5ae4414610439578063b922394614610450578063c45a015514610467578063c59ee1dc14610492578063d7bb99ba146104bd578063efbe1c1c146104c75761015e565b80638456cb591461034b5780638da5cb5b14610362578063937e09b11461038d578063953b8fb8146103b857806396e9dc1f146103e35780639d76ea581461040e5761015e565b80635114cb52116101085780635114cb521461024b57806360659a92146102745780636c47a6c31461029f5780636e7e3b2b146102ca5780637284e416146102f557806382b2e257146103205761015e565b80630121b93f14610163578063046f7da21461018c5780630bfd66c9146101a35780633700a06d146101cc57806339518b5e146101f55780634a79d50c146102205761015e565b3661015e5761015c6104de565b005b600080fd5b34801561016f57600080fd5b5061018a60048036038101906101859190612163565b610c62565b005b34801561019857600080fd5b506101a1610e88565b005b3480156101af57600080fd5b506101ca60048036038101906101c59190612334565b610f4f565b005b3480156101d857600080fd5b506101f360048036038101906101ee91906123a3565b61110c565b005b34801561020157600080fd5b5061020a61120b565b60405161021791906123fb565b60405180910390f35b34801561022c57600080fd5b50610235611211565b604051610242919061249e565b60405180910390f35b34801561025757600080fd5b50610272600480360381019061026d9190612163565b61129f565b005b34801561028057600080fd5b506102896114ca565b60405161029691906123fb565b60405180910390f35b3480156102ab57600080fd5b506102b461159e565b6040516102c191906123fb565b60405180910390f35b3480156102d657600080fd5b506102df6115a4565b6040516102ec91906124df565b60405180910390f35b34801561030157600080fd5b5061030a6115ba565b604051610317919061249e565b60405180910390f35b34801561032c57600080fd5b50610335611648565b60405161034291906123fb565b60405180910390f35b34801561035757600080fd5b506103606116fa565b005b34801561036e57600080fd5b506103776117c1565b604051610384919061251b565b60405180910390f35b34801561039957600080fd5b506103a26117e7565b6040516103af91906123fb565b60405180910390f35b3480156103c457600080fd5b506103cd6117ed565b6040516103da91906123fb565b60405180910390f35b3480156103ef57600080fd5b506103f86117f3565b6040516104059190612553565b60405180910390f35b34801561041a57600080fd5b50610423611807565b604051610430919061251b565b60405180910390f35b34801561044557600080fd5b5061044e61182d565b005b34801561045c57600080fd5b50610465611a91565b005b34801561047357600080fd5b5061047c611c22565b604051610489919061251b565b60405180910390f35b34801561049e57600080fd5b506104a7611c48565b6040516104b491906123fb565b60405180910390f35b6104c56104de565b005b3480156104d357600080fd5b506104dc611c4e565b005b600060028111156104f2576104f161256e565b5b600e60009054906101000a900460ff1660028111156105145761051361256e565b5b1461051e57600080fd5b600a60009054906101000a900473ffffffffffffffffffffffffffffffffffffffff1673ffffffffffffffffffffffffffffffffffffffff163373ffffffffffffffffffffffffffffffffffffffff161415801561057e57506005543410155b6105bd576040517f08c379a00000000000000000000000000000000000000000000000000000000081526004016105b4906125e9565b60405180910390fd5b6000600554346105cd9190612638565b1461060d576040517f08c379a0000000000000000000000000000000000000000000000000000000008152600401610604906126db565b60405180910390fd5b6000600860003373ffffffffffffffffffffffffffffffffffffffff1673ffffffffffffffffffffffffffffffffffffffff168152602001908152602001600020541415610697576000600381819054906101000a900463ffffffff16809291906106779061272a565b91906101000a81548163ffffffff021916908363ffffffff160217905550505b34600860003373ffffffffffffffffffffffffffffffffffffffff1673ffffffffffffffffffffffffffffffffffffffff16815260200190815260200160002060008282546106e69190612757565b9250508190555034600160008282546106ff9190612757565b925050819055506005543461071491906127ad565b600960009054906101000a900473ffffffffffffffffffffffffffffffffffffffff1673ffffffffffffffffffffffffffffffffffffffff166370a08231600b60009054906101000a900473ffffffffffffffffffffffffffffffffffffffff166040518263ffffffff1660e01b8152600401610791919061251b565b60206040518083038186803b1580156107a957600080fd5b505afa1580156107bd573d6000803e3d6000fd5b505050506040513d601f19601f820116820180604052508101906107e191906127f3565b106108cc57600960009054906101000a900473ffffffffffffffffffffffffffffffffffffffff1673ffffffffffffffffffffffffffffffffffffffff166323b872dd600b60009054906101000a900473ffffffffffffffffffffffffffffffffffffffff16336005543461085691906127ad565b6040518463ffffffff1660e01b815260040161087493929190612820565b602060405180830381600087803b15801561088e57600080fd5b505af11580156108a2573d6000803e3d6000fd5b505050506040513d601f19601f820116820180604052508101906108c6919061288f565b50610c27565b600554346108da91906127ad565b600960009054906101000a900473ffffffffffffffffffffffffffffffffffffffff1673ffffffffffffffffffffffffffffffffffffffff166370a08231600b60009054906101000a900473ffffffffffffffffffffffffffffffffffffffff166040518263ffffffff1660e01b8152600401610957919061251b565b60206040518083038186803b15801561096f57600080fd5b505afa158015610983573d6000803e3d6000fd5b505050506040513d601f19601f820116820180604052508101906109a791906127f3565b108015610a8057506000600960009054906101000a900473ffffffffffffffffffffffffffffffffffffffff1673ffffffffffffffffffffffffffffffffffffffff166370a08231600b60009054906101000a900473ffffffffffffffffffffffffffffffffffffffff166040518263ffffffff1660e01b8152600401610a2e919061251b565b60206040518083038186803b158015610a4657600080fd5b505afa158015610a5a573d6000803e3d6000fd5b505050506040513d601f19601f82011682018060405250810190610a7e91906127f3565b115b15610c2657600960009054906101000a900473ffffffffffffffffffffffffffffffffffffffff1673ffffffffffffffffffffffffffffffffffffffff166323b872dd600b60009054906101000a900473ffffffffffffffffffffffffffffffffffffffff1633600960009054906101000a900473ffffffffffffffffffffffffffffffffffffffff1673ffffffffffffffffffffffffffffffffffffffff166370a08231600b60009054906101000a900473ffffffffffffffffffffffffffffffffffffffff166040518263ffffffff1660e01b8152600401610b64919061251b565b60206040518083038186803b158015610b7c57600080fd5b505afa158015610b90573d6000803e3d6000fd5b505050506040513d601f19601f82011682018060405250810190610bb491906127f3565b6040518463ffffffff1660e01b8152600401610bd293929190612820565b602060405180830381600087803b158015610bec57600080fd5b505af1158015610c00573d6000803e3d6000fd5b505050506040513d601f19601f82011682018060405250810190610c24919061288f565b505b5b7f4d154d4aae216bed6d0926db77c00df2b57c6b5ba4eee05775de20facede3a7b3334604051610c589291906128bc565b60405180910390a1565b6000600960009054906101000a900473ffffffffffffffffffffffffffffffffffffffff1673ffffffffffffffffffffffffffffffffffffffff166370a08231336040518263ffffffff1660e01b8152600401610cbf919061251b565b60206040518083038186803b158015610cd757600080fd5b505afa158015610ceb573d6000803e3d6000fd5b505050506040513d601f19601f82011682018060405250810190610d0f91906127f3565b11610d1957600080fd5b60045460015411610d2957600080fd5b6003544211610d3757600080fd5b60006002811115610d4b57610d4a61256e565b5b600e60009054906101000a900460ff166002811115610d6d57610d6c61256e565b5b14610d7757600080fd5b6000600d60008381526020019081526020016000209050600015158160030160003373ffffffffffffffffffffffffffffffffffffffff1673ffffffffffffffffffffffffffffffffffffffff16815260200190815260200160002060009054906101000a900460ff16151514610ded57600080fd5b80600401600081819054906101000a900461ffff1680929190610e0f906128e5565b91906101000a81548161ffff021916908361ffff1602179055505060018160030160003373ffffffffffffffffffffffffffffffffffffffff1673ffffffffffffffffffffffffffffffffffffffff16815260200190815260200160002060006101000a81548160ff0219169083151502179055505050565b600a60009054906101000a900473ffffffffffffffffffffffffffffffffffffffff1673ffffffffffffffffffffffffffffffffffffffff163373ffffffffffffffffffffffffffffffffffffffff1614610ee257600080fd5b60016002811115610ef657610ef561256e565b5b600e60009054906101000a900460ff166002811115610f1857610f1761256e565b5b14610f2257600080fd5b6000600e60006101000a81548160ff02191690836002811115610f4857610f4761256e565b5b0217905550565b600a60009054906101000a900473ffffffffffffffffffffffffffffffffffffffff1673ffffffffffffffffffffffffffffffffffffffff163373ffffffffffffffffffffffffffffffffffffffff1614610fa957600080fd5b60045460015411610fb957600080fd5b6003544211610fc757600080fd5b60006002811115610fdb57610fda61256e565b5b600e60009054906101000a900460ff166002811115610ffd57610ffc61256e565b5b1461100757600080fd5b6000600d60008060009054906101000a900460ff1660ff168152602001908152602001600020905083816000019080519060200190611047929190612076565b50828160010181905550818160020160006101000a81548173ffffffffffffffffffffffffffffffffffffffff021916908373ffffffffffffffffffffffffffffffffffffffff16021790555060008081819054906101000a900460ff16809291906110b29061291d565b91906101000a81548160ff021916908360ff160217905550507fad85825fff8e6da2b6f59d3b220802bc57d96a920c5c530a5f22cb79c215effe8484846040516110fe93929190612956565b60405180910390a150505050565b600a60009054906101000a900473ffffffffffffffffffffffffffffffffffffffff1673ffffffffffffffffffffffffffffffffffffffff163373ffffffffffffffffffffffffffffffffffffffff161461116657600080fd5b600354421161117457600080fd5b600060028111156111885761118761256e565b5b600e60009054906101000a900460ff1660028111156111aa576111a961256e565b5b146111b457600080fd5b6001600060076101000a81548160ff0219169083151502179055507ffcfde8886e8b19512af076fe0b4301854310a7047301bc3bae2c3f2d7a35199d4282604051611200929190612994565b60405180910390a150565b60025481565b6006805461121e906129f3565b80601f016020809104026020016040519081016040528092919081815260200182805461124a906129f3565b80156112975780601f1061126c57610100808354040283529160200191611297565b820191906000526020600020905b81548152906001019060200180831161127a57829003601f168201915b505050505081565b600a60009054906101000a900473ffffffffffffffffffffffffffffffffffffffff1673ffffffffffffffffffffffffffffffffffffffff163373ffffffffffffffffffffffffffffffffffffffff16146112f957600080fd5b6004546001541161130957600080fd5b600354421161131757600080fd5b6000600281111561132b5761132a61256e565b5b600e60009054906101000a900460ff16600281111561134d5761134c61256e565b5b1461135757600080fd5b6000600d60008381526020019081526020016000209050600015158160040160029054906101000a900460ff1615151461139057600080fd5b6002600060039054906101000a900463ffffffff166113af9190612a25565b63ffffffff168160040160009054906101000a900461ffff1661ffff1610156113d757600080fd5b8060020160009054906101000a900473ffffffffffffffffffffffffffffffffffffffff1673ffffffffffffffffffffffffffffffffffffffff166108fc82600101549081150290604051600060405180830381858888f19350505050158015611445573d6000803e3d6000fd5b5060018160040160026101000a81548160ff0219169083151502179055507fdef0dd1961901757e759c1e3e1ced766d61d989aa5030414848dae6bac75cbdd828260020160009054906101000a900473ffffffffffffffffffffffffffffffffffffffff1683600101546040516114be93929190612a56565b60405180910390a15050565b6000600960009054906101000a900473ffffffffffffffffffffffffffffffffffffffff1673ffffffffffffffffffffffffffffffffffffffff166370a08231600b60009054906101000a900473ffffffffffffffffffffffffffffffffffffffff166040518263ffffffff1660e01b8152600401611549919061251b565b60206040518083038186803b15801561156157600080fd5b505afa158015611575573d6000803e3d6000fd5b505050506040513d601f19601f8201168201806040525081019061159991906127f3565b905090565b60035481565b600060039054906101000a900463ffffffff1681565b600780546115c7906129f3565b80601f01602080910402602001604051908101604052809291908181526020018280546115f3906129f3565b80156116405780601f1061161557610100808354040283529160200191611640565b820191906000526020600020905b81548152906001019060200180831161162357829003601f168201915b505050505081565b6000600960009054906101000a900473ffffffffffffffffffffffffffffffffffffffff1673ffffffffffffffffffffffffffffffffffffffff166370a08231336040518263ffffffff1660e01b81526004016116a5919061251b565b60206040518083038186803b1580156116bd57600080fd5b505afa1580156116d1573d6000803e3d6000fd5b505050506040513d601f19601f820116820180604052508101906116f591906127f3565b905090565b600a60009054906101000a900473ffffffffffffffffffffffffffffffffffffffff1673ffffffffffffffffffffffffffffffffffffffff163373ffffffffffffffffffffffffffffffffffffffff161461175457600080fd5b600060028111156117685761176761256e565b5b600e60009054906101000a900460ff16600281111561178a5761178961256e565b5b1461179457600080fd5b6001600e60006101000a81548160ff021916908360028111156117ba576117b961256e565b5b0217905550565b600a60009054906101000a900473ffffffffffffffffffffffffffffffffffffffff1681565b60055481565b60045481565b600060019054906101000a900461ffff1681565b600c60009054906101000a900473ffffffffffffffffffffffffffffffffffffffff1681565b6000600860003373ffffffffffffffffffffffffffffffffffffffff1673ffffffffffffffffffffffffffffffffffffffff168152602001908152602001600020541161187957600080fd5b6000600960009054906101000a900473ffffffffffffffffffffffffffffffffffffffff1673ffffffffffffffffffffffffffffffffffffffff166370a08231336040518263ffffffff1660e01b81526004016118d6919061251b565b60206040518083038186803b1580156118ee57600080fd5b505afa158015611902573d6000803e3d6000fd5b505050506040513d601f19601f8201168201806040525081019061192691906127f3565b1161193057600080fd5b600354421161193e57600080fd5b600060028111156119525761195161256e565b5b600e60009054906101000a900460ff1660028111156119745761197361256e565b5b1461197e57600080fd5b600454600154106119c4576040517f08c379a00000000000000000000000000000000000000000000000000000000081526004016119bb90612ad9565b60405180910390fd5b3373ffffffffffffffffffffffffffffffffffffffff166108fc600860003373ffffffffffffffffffffffffffffffffffffffff1673ffffffffffffffffffffffffffffffffffffffff168152602001908152602001600020549081150290604051600060405180830381858888f19350505050158015611a49573d6000803e3d6000fd5b506000600860003373ffffffffffffffffffffffffffffffffffffffff1673ffffffffffffffffffffffffffffffffffffffff16815260200190815260200160002081905550565b6000600960009054906101000a900473ffffffffffffffffffffffffffffffffffffffff1673ffffffffffffffffffffffffffffffffffffffff166370a08231336040518263ffffffff1660e01b8152600401611aee919061251b565b60206040518083038186803b158015611b0657600080fd5b505afa158015611b1a573d6000803e3d6000fd5b505050506040513d601f19601f82011682018060405250810190611b3e91906127f3565b11611b4857600080fd5b6003544211611b5657600080fd5b60006002811115611b6a57611b6961256e565b5b600e60009054906101000a900460ff166002811115611b8c57611b8b61256e565b5b14611b9657600080fd5b600060079054906101000a900460ff16611be5576040517f08c379a0000000000000000000000000000000000000000000000000000000008152600401611bdc90612b6b565b60405180910390fd5b6000600181819054906101000a900461ffff1680929190611c05906128e5565b91906101000a81548161ffff021916908361ffff16021790555050565b600b60009054906101000a900473ffffffffffffffffffffffffffffffffffffffff1681565b60015481565b600a60009054906101000a900473ffffffffffffffffffffffffffffffffffffffff1673ffffffffffffffffffffffffffffffffffffffff163373ffffffffffffffffffffffffffffffffffffffff1614611ca857600080fd5b600280811115611cbb57611cba61256e565b5b600e60009054906101000a900460ff166002811115611cdd57611cdc61256e565b5b1415611ce857600080fd5b6002600060039054906101000a900463ffffffff16611d079190612a25565b63ffffffff16600060019054906101000a900461ffff1661ffff1611611d2c57600080fd5b600a60009054906101000a900473ffffffffffffffffffffffffffffffffffffffff1673ffffffffffffffffffffffffffffffffffffffff166108fc479081150290604051600060405180830381858888f19350505050158015611d94573d6000803e3d6000fd5b506002600e60006101000a81548160ff02191690836002811115611dbb57611dba61256e565b5b0217905550611dc8611e19565b7f94942738dac5813db86bc09e12c382aaa6824a675cfd6f834a8e2d5a964ac3c4600060039054906101000a900463ffffffff1660015442604051611e0f93929190612bc6565b60405180910390a1565b600a60009054906101000a900473ffffffffffffffffffffffffffffffffffffffff1673ffffffffffffffffffffffffffffffffffffffff163373ffffffffffffffffffffffffffffffffffffffff1614611e7357600080fd5b600280811115611e8657611e8561256e565b5b600e60009054906101000a900460ff166002811115611ea857611ea761256e565b5b14611eb257600080fd5b600960009054906101000a900473ffffffffffffffffffffffffffffffffffffffff1673ffffffffffffffffffffffffffffffffffffffff166323b872dd600b60009054906101000a900473ffffffffffffffffffffffffffffffffffffffff16600a60009054906101000a900473ffffffffffffffffffffffffffffffffffffffff16600960009054906101000a900473ffffffffffffffffffffffffffffffffffffffff1673ffffffffffffffffffffffffffffffffffffffff166370a08231600b60009054906101000a900473ffffffffffffffffffffffffffffffffffffffff166040518263ffffffff1660e01b8152600401611fb3919061251b565b60206040518083038186803b158015611fcb57600080fd5b505afa158015611fdf573d6000803e3d6000fd5b505050506040513d601f19601f8201168201806040525081019061200391906127f3565b6040518463ffffffff1660e01b815260040161202193929190612820565b602060405180830381600087803b15801561203b57600080fd5b505af115801561204f573d6000803e3d6000fd5b505050506040513d601f19601f82011682018060405250810190612073919061288f565b50565b828054612082906129f3565b90600052602060002090601f0160209004810192826120a457600085556120eb565b82601f106120bd57805160ff19168380011785556120eb565b828001600101855582156120eb579182015b828111156120ea5782518255916020019190600101906120cf565b5b5090506120f891906120fc565b5090565b5b808211156121155760008160009055506001016120fd565b5090565b6000604051905090565b600080fd5b600080fd5b6000819050919050565b6121408161212d565b811461214b57600080fd5b50565b60008135905061215d81612137565b92915050565b60006020828403121561217957612178612123565b5b60006121878482850161214e565b91505092915050565b600080fd5b600080fd5b6000601f19601f8301169050919050565b7f4e487b7100000000000000000000000000000000000000000000000000000000600052604160045260246000fd5b6121e38261219a565b810181811067ffffffffffffffff82111715612202576122016121ab565b5b80604052505050565b6000612215612119565b905061222182826121da565b919050565b600067ffffffffffffffff821115612241576122406121ab565b5b61224a8261219a565b9050602081019050919050565b82818337600083830152505050565b600061227961227484612226565b61220b565b90508281526020810184848401111561229557612294612195565b5b6122a0848285612257565b509392505050565b600082601f8301126122bd576122bc612190565b5b81356122cd848260208601612266565b91505092915050565b600073ffffffffffffffffffffffffffffffffffffffff82169050919050565b6000612301826122d6565b9050919050565b612311816122f6565b811461231c57600080fd5b50565b60008135905061232e81612308565b92915050565b60008060006060848603121561234d5761234c612123565b5b600084013567ffffffffffffffff81111561236b5761236a612128565b5b612377868287016122a8565b93505060206123888682870161214e565b92505060406123998682870161231f565b9150509250925092565b6000602082840312156123b9576123b8612123565b5b600082013567ffffffffffffffff8111156123d7576123d6612128565b5b6123e3848285016122a8565b91505092915050565b6123f58161212d565b82525050565b600060208201905061241060008301846123ec565b92915050565b600081519050919050565b600082825260208201905092915050565b60005b83811015612450578082015181840152602081019050612435565b8381111561245f576000848401525b50505050565b600061247082612416565b61247a8185612421565b935061248a818560208601612432565b6124938161219a565b840191505092915050565b600060208201905081810360008301526124b88184612465565b905092915050565b600063ffffffff82169050919050565b6124d9816124c0565b82525050565b60006020820190506124f460008301846124d0565b92915050565b6000612505826122d6565b9050919050565b612515816124fa565b82525050565b6000602082019050612530600083018461250c565b92915050565b600061ffff82169050919050565b61254d81612536565b82525050565b60006020820190506125686000830184612544565b92915050565b7f4e487b7100000000000000000000000000000000000000000000000000000000600052602160045260246000fd5b7f416d6f756e74206d757374206265206869676865720000000000000000000000600082015250565b60006125d3601583612421565b91506125de8261259d565b602082019050919050565b60006020820190508181036000830152612602816125c6565b9050919050565b7f4e487b7100000000000000000000000000000000000000000000000000000000600052601260045260246000fd5b60006126438261212d565b915061264e8361212d565b92508261265e5761265d612609565b5b828206905092915050565b7f56616c7565206d7573742062652061206d756c7469706c65206f66206d696e6960008201527f6d756d20616d6f756e7400000000000000000000000000000000000000000000602082015250565b60006126c5602a83612421565b91506126d082612669565b604082019050919050565b600060208201905081810360008301526126f4816126b8565b9050919050565b7f4e487b7100000000000000000000000000000000000000000000000000000000600052601160045260246000fd5b6000612735826124c0565b915063ffffffff82141561274c5761274b6126fb565b5b600182019050919050565b60006127628261212d565b915061276d8361212d565b9250827fffffffffffffffffffffffffffffffffffffffffffffffffffffffffffffffff038211156127a2576127a16126fb565b5b828201905092915050565b60006127b88261212d565b91506127c38361212d565b9250826127d3576127d2612609565b5b828204905092915050565b6000815190506127ed81612137565b92915050565b60006020828403121561280957612808612123565b5b6000612817848285016127de565b91505092915050565b6000606082019050612835600083018661250c565b612842602083018561250c565b61284f60408301846123ec565b949350505050565b60008115159050919050565b61286c81612857565b811461287757600080fd5b50565b60008151905061288981612863565b92915050565b6000602082840312156128a5576128a4612123565b5b60006128b38482850161287a565b91505092915050565b60006040820190506128d1600083018561250c565b6128de60208301846123ec565b9392505050565b60006128f082612536565b915061ffff821415612905576129046126fb565b5b600182019050919050565b600060ff82169050919050565b600061292882612910565b915060ff82141561293c5761293b6126fb565b5b600182019050919050565b612950816122f6565b82525050565b600060608201905081810360008301526129708186612465565b905061297f60208301856123ec565b61298c6040830184612947565b949350505050565b60006040820190506129a960008301856123ec565b81810360208301526129bb8184612465565b90509392505050565b7f4e487b7100000000000000000000000000000000000000000000000000000000600052602260045260246000fd5b60006002820490506001821680612a0b57607f821691505b60208210811415612a1f57612a1e6129c4565b5b50919050565b6000612a30826124c0565b9150612a3b836124c0565b925082612a4b57612a4a612609565b5b828204905092915050565b6000606082019050612a6b60008301866123ec565b612a786020830185612947565b612a8560408301846123ec565b949350505050565b7f54617267657420616d6f756e7420686173206265656e206d6574000000000000600082015250565b6000612ac3601a83612421565b9150612ace82612a8d565b602082019050919050565b60006020820190508181036000830152612af281612ab6565b9050919050565b7f566f74696e6720666f722073616c6520656e6420686173206e6f74207374617260008201527f7465642079657400000000000000000000000000000000000000000000000000602082015250565b6000612b55602783612421565b9150612b6082612af9565b604082019050919050565b60006020820190508181036000830152612b8481612b48565b9050919050565b6000819050919050565b6000612bb0612bab612ba6846124c0565b612b8b565b61212d565b9050919050565b612bc081612b95565b82525050565b6000606082019050612bdb6000830186612bb7565b612be860208301856123ec565b612bf560408301846123ec565b94935050505056fea264697066735822122061367ecf1272be4399eee5033a317e3a21bc2675a1a1ea6b5a3af4e6f17f9b1864736f6c63430008090033a2646970667358221220360a36b770305103ebb8e167de45f8b342c7687fd8b69cbe2a0bc9dfc1344ce864736f6c63430008090033",
  "immutableReferences": {},
  "source": "// SPDX-License-Identifier: GPL-3.0\r\npragma solidity 0.8.9;\r\nimport \"./Crowdsale.sol\";\r\nimport \"./TokenContract.sol\";\r\n\r\ncontract Factory{\r\n    address[] public deployedSales;\r\n    mapping(address=>address) saleToToken;\r\n\r\n    function createSale(string memory _title, string memory _description, uint _target, uint _minimum, string memory _tokenName, \r\n    string memory _tokenSymbol, uint _tokenAmount) public{\r\n        TokenContract token = new TokenContract(_tokenName, _tokenSymbol, _tokenAmount);\r\n        address newCrowdSale = address(new Crowdsale(_title, _description, _target, _minimum, msg.sender, token));\r\n        token.approve(newCrowdSale, _tokenAmount);\r\n        saleToToken[newCrowdSale] = address(token);\r\n        deployedSales.push(newCrowdSale);\r\n    }\r\n    function getDeployedSales() public view returns (address[] memory){\r\n        return deployedSales;\r\n    }\r\n    function getTokenAddress(address _crowdsale) public view returns (address){\r\n        return saleToToken[_crowdsale];\r\n    } \r\n}",
  "sourcePath": "D:\\Projects\\Crowdfunding\\contracts\\Factory.sol",
  "compiler": {
    "name": "solc",
    "version": "0.8.9+commit.e5eed63a.Emscripten.clang"
  },
  "schemaVersion": "3.4.3",
  "updatedAt": "2021-10-28T09:14:22.772Z",
  "networkType": "ethereum",
  "devdoc": {
    "kind": "dev",
    "methods": {},
    "version": 1
  },
  "userdoc": {
    "kind": "user",
    "methods": {},
    "version": 1
  }
}