{
  "contractName": "Factory",
  "abi": [
    {
      "inputs": [
        {
          "internalType": "uint256",
          "name": "",
          "type": "uint256"
        }
      ],
      "name": "deployedSales",
      "outputs": [
        {
          "internalType": "address",
          "name": "",
          "type": "address"
        }
      ],
      "stateMutability": "view",
      "type": "function"
    },
    {
      "inputs": [
        {
          "internalType": "string",
          "name": "_title",
          "type": "string"
        },
        {
          "internalType": "string",
          "name": "_description",
          "type": "string"
        },
        {
          "internalType": "uint256",
          "name": "_target",
          "type": "uint256"
        },
        {
          "internalType": "uint256",
          "name": "_minimum",
          "type": "uint256"
        },
        {
          "internalType": "string",
          "name": "_tokenName",
          "type": "string"
        },
        {
          "internalType": "string",
          "name": "_tokenSymbol",
          "type": "string"
        },
        {
          "internalType": "uint256",
          "name": "_tokenAmount",
          "type": "uint256"
        }
      ],
      "name": "createSale",
      "outputs": [],
      "stateMutability": "nonpayable",
      "type": "function"
    },
    {
      "inputs": [],
      "name": "getDeployedSales",
      "outputs": [
        {
          "internalType": "address[]",
          "name": "",
          "type": "address[]"
        }
      ],
      "stateMutability": "view",
      "type": "function"
    },
    {
      "inputs": [
        {
          "internalType": "address",
          "name": "_crowdsale",
          "type": "address"
        }
      ],
      "name": "getTokenAddress",
      "outputs": [
        {
          "internalType": "address",
          "name": "",
          "type": "address"
        }
      ],
      "stateMutability": "view",
      "type": "function"
    }
  ],
  "bytecode": "0x608060405234801561001057600080fd5b50613374806100206000396000f3fe60806040523480156200001157600080fd5b50600436106200006e577c010000000000000000000000000000000000000000000000000000000060003504632ddccf9581146200007357806347bd32f014620000a7578063b771ad1714620000c0578063b8d7b66914620000d9575b600080fd5b6200008a620000843660046200035b565b62000108565b604051600160a060020a0390911681526020015b60405180910390f35b620000b162000133565b6040516200009e919062000375565b620000d7620000d136600462000488565b62000197565b005b6200008a620000ea3660046200055f565b600160a060020a039081166000908152600160205260409020541690565b600081815481106200011957600080fd5b600091825260209091200154600160a060020a0316905081565b606060008054806020026020016040519081016040528092919081815260200182805480156200018d57602002820191906000526020600020905b8154600160a060020a031681526001909101906020018083116200016e575b5050505050905090565b6000838383604051620001aa906200033f565b620001b893929190620005e1565b604051809103906000f080158015620001d5573d6000803e3d6000fd5b5090506000888888883386604051620001ee906200034d565b620001ff969594939291906200061b565b604051809103906000f0801580156200021c573d6000803e3d6000fd5b506040517f095ea7b3000000000000000000000000000000000000000000000000000000008152600160a060020a038083166004830152602482018690529192509083169063095ea7b390604401602060405180830381600087803b1580156200028557600080fd5b505af11580156200029a573d6000803e3d6000fd5b505050506040513d601f19601f82011682018060405250810190620002c0919062000673565b50600160a060020a039081166000818152600160208190526040822080549490951673ffffffffffffffffffffffffffffffffffffffff19948516179094558054938401815580527f290decd9548b62a8d60345a988386fc84ba6bc95484008f6362f93160ef3e5639092018054909116909117905550505050505050565b611007806200069883390190565b611ca0806200169f83390190565b6000602082840312156200036e57600080fd5b5035919050565b6020808252825182820181905260009190848201906040850190845b81811015620003b8578351600160a060020a03168352928401929184019160010162000391565b50909695505050505050565b7f4e487b7100000000000000000000000000000000000000000000000000000000600052604160045260246000fd5b600082601f8301126200040557600080fd5b813567ffffffffffffffff80821115620004235762000423620003c4565b604051601f8301601f19908116603f011681019082821181831017156200044e576200044e620003c4565b816040528381528660208588010111156200046857600080fd5b836020870160208301376000602085830101528094505050505092915050565b600080600080600080600060e0888a031215620004a457600080fd5b873567ffffffffffffffff80821115620004bd57600080fd5b620004cb8b838c01620003f3565b985060208a0135915080821115620004e257600080fd5b620004f08b838c01620003f3565b975060408a0135965060608a0135955060808a01359150808211156200051557600080fd5b620005238b838c01620003f3565b945060a08a01359150808211156200053a57600080fd5b50620005498a828b01620003f3565b92505060c0880135905092959891949750929550565b6000602082840312156200057257600080fd5b8135600160a060020a03811681146200058a57600080fd5b9392505050565b6000815180845260005b81811015620005b9576020818501810151868301820152016200059b565b81811115620005cc576000602083870101525b50601f01601f19169290920160200192915050565b606081526000620005f6606083018662000591565b82810360208401526200060a818662000591565b915050826040830152949350505050565b60c0815260006200063060c083018962000591565b828103602084015262000644818962000591565b604084019790975250506060810193909352600160a060020a0391821660808401521660a09091015292915050565b6000602082840312156200068657600080fd5b815180151581146200058a57600080fdfe60806040523480156200001157600080fd5b50604051620010073803806200100783398101604081905262000034916200034b565b8251839083906200004d906003906020850190620001bf565b50805162000063906004906020840190620001bf565b5050506200008133826200008a640100000000026401000000009004565b50505062000454565b600160a060020a038216620000ff576040517f08c379a000000000000000000000000000000000000000000000000000000000815260206004820152601f60248201527f45524332303a206d696e7420746f20746865207a65726f206164647265737300604482015260640160405180910390fd5b6200011660008383640100000000620001ba810204565b80600260008282546200012a9190620003be565b9091555050600160a060020a0382166000908152602081905260408120805483929062000159908490620003be565b9091555050604051818152600160a060020a038316906000907fddf252ad1be2c89b69c2b068fc378daa952ba7f163c4a11628f55a4df523b3ef9060200160405180910390a3620001b660008383640100000000620001ba810204565b5050565b505050565b828054620001cd90620003fe565b90600052602060002090601f016020900481019282620001f157600085556200023c565b82601f106200020c57805160ff19168380011785556200023c565b828001600101855582156200023c579182015b828111156200023c5782518255916020019190600101906200021f565b506200024a9291506200024e565b5090565b5b808211156200024a57600081556001016200024f565b7f4e487b7100000000000000000000000000000000000000000000000000000000600052604160045260246000fd5b600082601f830112620002a657600080fd5b81516001604060020a0380821115620002c357620002c362000265565b604051601f8301601f19908116603f01168101908282118183101715620002ee57620002ee62000265565b816040528381526020925086838588010111156200030b57600080fd5b600091505b838210156200032f578582018301518183018401529082019062000310565b83821115620003415760008385830101525b9695505050505050565b6000806000606084860312156200036157600080fd5b83516001604060020a03808211156200037957600080fd5b620003878783880162000294565b945060208601519150808211156200039e57600080fd5b50620003ad8682870162000294565b925050604084015190509250925092565b60008219821115620003f9577f4e487b7100000000000000000000000000000000000000000000000000000000600052601160045260246000fd5b500190565b6002810460018216806200041357607f821691505b602082108114156200044e577f4e487b7100000000000000000000000000000000000000000000000000000000600052602260045260246000fd5b50919050565b610ba380620004646000396000f3fe608060405234801561001057600080fd5b50600436106100d1576000357c01000000000000000000000000000000000000000000000000000000009004806370a082311161008e57806370a082311461015e57806395d89b41146101875780639dc29fac1461018f578063a457c2d7146101a4578063a9059cbb146101b7578063dd62ed3e146101ca57600080fd5b806306fdde03146100d6578063095ea7b3146100f457806318160ddd1461011757806323b872dd14610129578063313ce5671461013c578063395093511461014b575b600080fd5b6100de610203565b6040516100eb919061098f565b60405180910390f35b610107610102366004610a00565b610295565b60405190151581526020016100eb565b6002545b6040519081526020016100eb565b610107610137366004610a2a565b6102ab565b604051600081526020016100eb565b610107610159366004610a00565b610372565b61011b61016c366004610a66565b600160a060020a031660009081526020819052604090205490565b6100de6103ae565b6101a261019d366004610a00565b6103bd565b005b6101076101b2366004610a00565b6103cb565b6101076101c5366004610a00565b61047f565b61011b6101d8366004610a88565b600160a060020a03918216600090815260016020908152604080832093909416825291909152205490565b60606003805461021290610abb565b80601f016020809104026020016040519081016040528092919081815260200182805461023e90610abb565b801561028b5780601f106102605761010080835404028352916020019161028b565b820191906000526020600020905b81548152906001019060200180831161026e57829003601f168201915b5050505050905090565b60006102a233848461048c565b50600192915050565b60006102b88484846105eb565b600160a060020a03841660009081526001602090815260408083203384529091529020548281101561035a5760405160e560020a62461bcd02815260206004820152602860248201527f45524332303a207472616e7366657220616d6f756e742065786365656473206160448201527f6c6c6f77616e636500000000000000000000000000000000000000000000000060648201526084015b60405180910390fd5b610367853385840361048c565b506001949350505050565b336000818152600160209081526040808320600160a060020a038716845290915281205490916102a29185906103a9908690610b3e565b61048c565b60606004805461021290610abb565b6103c7828261080c565b5050565b336000908152600160209081526040808320600160a060020a0386168452909152812054828110156104685760405160e560020a62461bcd02815260206004820152602560248201527f45524332303a2064656372656173656420616c6c6f77616e63652062656c6f7760448201527f207a65726f0000000000000000000000000000000000000000000000000000006064820152608401610351565b610475338585840361048c565b5060019392505050565b60006102a23384846105eb565b600160a060020a03831661050a5760405160e560020a62461bcd028152602060048201526024808201527f45524332303a20617070726f76652066726f6d20746865207a65726f2061646460448201527f72657373000000000000000000000000000000000000000000000000000000006064820152608401610351565b600160a060020a0382166105895760405160e560020a62461bcd02815260206004820152602260248201527f45524332303a20617070726f766520746f20746865207a65726f20616464726560448201527f73730000000000000000000000000000000000000000000000000000000000006064820152608401610351565b600160a060020a0383811660008181526001602090815260408083209487168084529482529182902085905590518481527f8c5be1e5ebec7d5bd14f71427d1e84f3dd0314c0f7b2291e5b200ac8c7c3b92591015b60405180910390a3505050565b600160a060020a03831661066a5760405160e560020a62461bcd02815260206004820152602560248201527f45524332303a207472616e736665722066726f6d20746865207a65726f20616460448201527f64726573730000000000000000000000000000000000000000000000000000006064820152608401610351565b600160a060020a0382166106e95760405160e560020a62461bcd02815260206004820152602360248201527f45524332303a207472616e7366657220746f20746865207a65726f206164647260448201527f65737300000000000000000000000000000000000000000000000000000000006064820152608401610351565b600160a060020a0383166000908152602081905260409020548181101561077b5760405160e560020a62461bcd02815260206004820152602660248201527f45524332303a207472616e7366657220616d6f756e742065786365656473206260448201527f616c616e636500000000000000000000000000000000000000000000000000006064820152608401610351565b600160a060020a038085166000908152602081905260408082208585039055918516815290812080548492906107b2908490610b3e565b9250508190555082600160a060020a031684600160a060020a03167fddf252ad1be2c89b69c2b068fc378daa952ba7f163c4a11628f55a4df523b3ef846040516107fe91815260200190565b60405180910390a350505050565b600160a060020a03821661088b5760405160e560020a62461bcd02815260206004820152602160248201527f45524332303a206275726e2066726f6d20746865207a65726f2061646472657360448201527f73000000000000000000000000000000000000000000000000000000000000006064820152608401610351565b600160a060020a0382166000908152602081905260409020548181101561091d5760405160e560020a62461bcd02815260206004820152602260248201527f45524332303a206275726e20616d6f756e7420657863656564732062616c616e60448201527f63650000000000000000000000000000000000000000000000000000000000006064820152608401610351565b600160a060020a038316600090815260208190526040812083830390556002805484929061094c908490610b56565b9091555050604051828152600090600160a060020a038516907fddf252ad1be2c89b69c2b068fc378daa952ba7f163c4a11628f55a4df523b3ef906020016105de565b600060208083528351808285015260005b818110156109bc578581018301518582016040015282016109a0565b818111156109ce576000604083870101525b50601f01601f1916929092016040019392505050565b8035600160a060020a03811681146109fb57600080fd5b919050565b60008060408385031215610a1357600080fd5b610a1c836109e4565b946020939093013593505050565b600080600060608486031215610a3f57600080fd5b610a48846109e4565b9250610a56602085016109e4565b9150604084013590509250925092565b600060208284031215610a7857600080fd5b610a81826109e4565b9392505050565b60008060408385031215610a9b57600080fd5b610aa4836109e4565b9150610ab2602084016109e4565b90509250929050565b600281046001821680610acf57607f821691505b60208210811415610b09577f4e487b7100000000000000000000000000000000000000000000000000000000600052602260045260246000fd5b50919050565b7f4e487b7100000000000000000000000000000000000000000000000000000000600052601160045260246000fd5b60008219821115610b5157610b51610b0f565b500190565b600082821015610b6857610b68610b0f565b50039056fea26469706673582212207225e554fa18023eeb4c201baaa2c034eb2f60366e3a964420429e8f4834a27a64736f6c6343000809003360806040523480156200001157600080fd5b5060405162001ca038038062001ca083398101604081905262000034916200028f565b600a8054600160a060020a031916600160a060020a03841617905542600281905562000064906224ea0062000337565b60035560048490556005839055855162000086906006906020890190620000ea565b5084516200009c906007906020880190620000ea565b5060098054600160a060020a0392909216600160a060020a03199283168117909155600c805483169091179055600b8054909116331790555050600e805460ff1916905550620003cd915050565b828054620000f89062000377565b90600052602060002090601f0160209004810192826200011c576000855562000167565b82601f106200013757805160ff191683800117855562000167565b8280016001018555821562000167579182015b82811115620001675782518255916020019190600101906200014a565b506200017592915062000179565b5090565b5b808211156200017557600081556001016200017a565b7f4e487b7100000000000000000000000000000000000000000000000000000000600052604160045260246000fd5b600082601f830112620001d157600080fd5b81516001604060020a0380821115620001ee57620001ee62000190565b604051601f8301601f19908116603f0116810190828211818310171562000219576200021962000190565b816040528381526020925086838588010111156200023657600080fd5b600091505b838210156200025a57858201830151818301840152908201906200023b565b838211156200026c5760008385830101525b9695505050505050565b600160a060020a03811681146200028c57600080fd5b50565b60008060008060008060c08789031215620002a957600080fd5b86516001604060020a0380821115620002c157600080fd5b620002cf8a838b01620001bf565b97506020890151915080821115620002e657600080fd5b50620002f589828a01620001bf565b95505060408701519350606087015192506080870151620003168162000276565b60a0880151909250620003298162000276565b809150509295509295509295565b6000821982111562000372577f4e487b7100000000000000000000000000000000000000000000000000000000600052601160045260246000fd5b500190565b6002810460018216806200038c57607f821691505b60208210811415620003c7577f4e487b7100000000000000000000000000000000000000000000000000000000600052602260045260246000fd5b50919050565b6118c380620003dd6000396000f3fe60806040526004361061013d5760003560e060020a9004806382b2e257116100af57806396e9dc1f1161007357806396e9dc1f14610338578063b2d5ae441461036b578063b922394614610380578063c59ee1dc14610395578063d7bb99ba146103ab578063efbe1c1c146103b357600080fd5b806382b2e257146102aa5780638456cb59146102bf5780638da5cb5b146102d4578063937e09b11461030c578063953b8fb81461032257600080fd5b80634a79d50c116101015780634a79d50c146101ef5780635114cb521461021157806360659a92146102315780636c47a6c3146102465780636e7e3b2b1461025c5780637284e4161461029557600080fd5b80630121b93f14610151578063046f7da2146101715780630bfd66c9146101865780633700a06d146101a657806339518b5e146101c657600080fd5b3661014c5761014a6103c8565b005b600080fd5b34801561015d57600080fd5b5061014a61016c3660046114f5565b61092d565b34801561017d57600080fd5b5061014a610a59565b34801561019257600080fd5b5061014a6101a13660046115b4565b610aaa565b3480156101b257600080fd5b5061014a6101c136600461161b565b610bc7565b3480156101d257600080fd5b506101dc60025481565b6040519081526020015b60405180910390f35b3480156101fb57600080fd5b50610204610c67565b6040516101e691906116a5565b34801561021d57600080fd5b5061014a61022c3660046114f5565b610cf5565b34801561023d57600080fd5b506101dc610e39565b34801561025257600080fd5b506101dc60035481565b34801561026857600080fd5b50600054610280906301000000900463ffffffff1681565b60405163ffffffff90911681526020016101e6565b3480156102a157600080fd5b50610204610ec6565b3480156102b657600080fd5b506101dc610ed3565b3480156102cb57600080fd5b5061014a610f07565b3480156102e057600080fd5b50600a546102f490600160a060020a031681565b604051600160a060020a0390911681526020016101e6565b34801561031857600080fd5b506101dc60055481565b34801561032e57600080fd5b506101dc60045481565b34801561034457600080fd5b5060005461035890610100900461ffff1681565b60405161ffff90911681526020016101e6565b34801561037757600080fd5b5061014a610f54565b34801561038c57600080fd5b5061014a6110a4565b3480156103a157600080fd5b506101dc60015481565b61014a6103c8565b3480156103bf57600080fd5b5061014a6111e9565b6000600e5460ff1660028111156103e1576103e16116bf565b146103eb57600080fd5b600a54600160a060020a0316331480159061040857506005543410155b61045c5760405160e560020a62461bcd02815260206004820152601560248201527f416d6f756e74206d75737420626520686967686572000000000000000000000060448201526064015b60405180910390fd5b60055461046990346116f1565b156104df5760405160e560020a62461bcd02815260206004820152602a60248201527f56616c7565206d7573742062652061206d756c7469706c65206f66206d696e6960448201527f6d756d20616d6f756e74000000000000000000000000000000000000000000006064820152608401610453565b3360009081526008602052604090205461053057600080546301000000900463ffffffff169060036105108361171e565b91906101000a81548163ffffffff021916908363ffffffff160217905550505b336000908152600860205260408120805434929061054f908490611742565b9250508190555034600160008282546105689190611742565b909155505060055461057a903461175a565b600954600b5460405160e060020a6370a08231028152600160a060020a0391821660048201529116906370a082319060240160206040518083038186803b1580156105c457600080fd5b505afa1580156105d8573d6000803e3d6000fd5b505050506040513d601f19601f820116820180604052508101906105fc919061176e565b106106b557600954600b54600554600160a060020a03928316926323b872dd921690339061062a903461175a565b60405160e060020a63ffffffff8616028152600160a060020a0393841660048201529290911660248301526044820152606401602060405180830381600087803b15801561067757600080fd5b505af115801561068b573d6000803e3d6000fd5b505050506040513d601f19601f820116820180604052508101906106af9190611787565b506108f2565b6005546106c2903461175a565b600954600b5460405160e060020a6370a08231028152600160a060020a0391821660048201529116906370a082319060240160206040518083038186803b15801561070c57600080fd5b505afa158015610720573d6000803e3d6000fd5b505050506040513d601f19601f82011682018060405250810190610744919061176e565b1080156107d55750600954600b5460405160e060020a6370a08231028152600160a060020a03918216600482015260009291909116906370a082319060240160206040518083038186803b15801561079b57600080fd5b505afa1580156107af573d6000803e3d6000fd5b505050506040513d601f19601f820116820180604052508101906107d3919061176e565b115b156108f257600954600b5460405160e060020a6370a08231028152600160a060020a039182166004820181905291909216916323b872dd9190339084906370a082319060240160206040518083038186803b15801561083357600080fd5b505afa158015610847573d6000803e3d6000fd5b505050506040513d601f19601f8201168201806040525081019061086b919061176e565b60405160e060020a63ffffffff8616028152600160a060020a0393841660048201529290911660248301526044820152606401602060405180830381600087803b1580156108b857600080fd5b505af11580156108cc573d6000803e3d6000fd5b505050506040513d601f19601f820116820180604052508101906108f09190611787565b505b604080513381523460208201527f4d154d4aae216bed6d0926db77c00df2b57c6b5ba4eee05775de20facede3a7b91015b60405180910390a1565b60095460405160e060020a6370a08231028152336004820152600091600160a060020a0316906370a082319060240160206040518083038186803b15801561097457600080fd5b505afa158015610988573d6000803e3d6000fd5b505050506040513d601f19601f820116820180604052508101906109ac919061176e565b116109b657600080fd5b6000600e5460ff1660028111156109cf576109cf6116bf565b146109d957600080fd5b6000818152600d60209081526040808320338452600381019092529091205460ff1615610a0557600080fd5b60048101805461ffff16906000610a1b836117a9565b825461ffff9182166101009390930a928302919092021990911617905550336000908152600390910160205260409020805460ff1916600117905550565b600a54600160a060020a03163314610a7057600080fd5b6001600e5460ff166002811115610a8957610a896116bf565b14610a9357600080fd5b600e80546000919060ff19166001835b0217905550565b600a54600160a060020a03163314610ac157600080fd5b60045460015411610ad157600080fd5b6003544211610adf57600080fd5b6000600e5460ff166002811115610af857610af86116bf565b14610b0257600080fd5b6000805460ff168152600d6020908152604090912084519091610b2991839187019061145c565b506001810183905560028101805473ffffffffffffffffffffffffffffffffffffffff1916600160a060020a0384161790556000805460ff169080610b6d836117c1565b91906101000a81548160ff021916908360ff160217905550507fad85825fff8e6da2b6f59d3b220802bc57d96a920c5c530a5f22cb79c215effe848484604051610bb9939291906117e1565b60405180910390a150505050565b600a54600160a060020a03163314610bde57600080fd5b6003544211610bec57600080fd5b6000600e5460ff166002811115610c0557610c056116bf565b14610c0f57600080fd5b6000805467ff0000000000000019166701000000000000001790556040517ffcfde8886e8b19512af076fe0b4301854310a7047301bc3bae2c3f2d7a35199d90610c5c9042908490611813565b60405180910390a150565b60068054610c749061182c565b80601f0160208091040260200160405190810160405280929190818152602001828054610ca09061182c565b8015610ced5780601f10610cc257610100808354040283529160200191610ced565b820191906000526020600020905b815481529060010190602001808311610cd057829003601f168201915b505050505081565b600a54600160a060020a03163314610d0c57600080fd5b6000600e5460ff166002811115610d2557610d256116bf565b14610d2f57600080fd5b6000818152600d60205260409020600481015462010000900460ff1615610d5557600080fd5b600054610d71906002906301000000900463ffffffff1661186a565b600482015463ffffffff9190911661ffff9091161015610d9057600080fd5b60028101546001820154604051600160a060020a039092169181156108fc0291906000818181858888f19350505050158015610dd0573d6000803e3d6000fd5b5060048101805462ff00001916620100001790556002810154600182015460408051858152600160a060020a0390931660208401528201527fdef0dd1961901757e759c1e3e1ced766d61d989aa5030414848dae6bac75cbdd9060600160405180910390a15050565b600954600b5460405160e060020a6370a08231028152600160a060020a03918216600482015260009291909116906370a08231906024015b60206040518083038186803b158015610e8957600080fd5b505afa158015610e9d573d6000803e3d6000fd5b505050506040513d601f19601f82011682018060405250810190610ec1919061176e565b905090565b60078054610c749061182c565b60095460405160e060020a6370a08231028152336004820152600091600160a060020a0316906370a0823190602401610e71565b600a54600160a060020a03163314610f1e57600080fd5b6000600e5460ff166002811115610f3757610f376116bf565b14610f4157600080fd5b600e80546001919060ff19168280610aa3565b33600090815260086020526040902054610f6d57600080fd5b60095460405160e060020a6370a08231028152336004820152600091600160a060020a0316906370a082319060240160206040518083038186803b158015610fb457600080fd5b505afa158015610fc8573d6000803e3d6000fd5b505050506040513d601f19601f82011682018060405250810190610fec919061176e565b11610ff657600080fd5b600354421161100457600080fd5b6004546001541061105a5760405160e560020a62461bcd02815260206004820152601a60248201527f54617267657420616d6f756e7420686173206265656e206d65740000000000006044820152606401610453565b3360008181526008602052604080822054905181156108fc0292818181858888f19350505050158015611091573d6000803e3d6000fd5b5033600090815260086020526040812055565b60095460405160e060020a6370a08231028152336004820152600091600160a060020a0316906370a082319060240160206040518083038186803b1580156110eb57600080fd5b505afa1580156110ff573d6000803e3d6000fd5b505050506040513d601f19601f82011682018060405250810190611123919061176e565b1161112d57600080fd5b600054670100000000000000900460ff166111b35760405160e560020a62461bcd02815260206004820152602760248201527f566f74696e6720666f722073616c6520656e6420686173206e6f74207374617260448201527f74656420796574000000000000000000000000000000000000000000000000006064820152608401610453565b60008054610100900461ffff169060016111cc836117a9565b91906101000a81548161ffff021916908361ffff16021790555050565b600a54600160a060020a0316331461120057600080fd5b6002600e5460ff166002811115611219576112196116bf565b141561122457600080fd5b600054611240906002906301000000900463ffffffff1661186a565b63ffffffff16600060019054906101000a900461ffff1661ffff161161126557600080fd5b600a54604051600160a060020a0390911690303180156108fc02916000818181858888f1935050505015801561129f573d6000803e3d6000fd5b50600e805460ff191660021790556112b5611306565b60005460015460408051630100000090930463ffffffff168352602083019190915242908201527f94942738dac5813db86bc09e12c382aaa6824a675cfd6f834a8e2d5a964ac3c490606001610923565b600a54600160a060020a0316331461131d57600080fd5b6002600e5460ff166002811115611336576113366116bf565b1461134057600080fd5b600954600b54600a5460405160e060020a6370a08231028152600160a060020a0392831660048201819052938316936323b872dd939092169084906370a082319060240160206040518083038186803b15801561139c57600080fd5b505afa1580156113b0573d6000803e3d6000fd5b505050506040513d601f19601f820116820180604052508101906113d4919061176e565b60405160e060020a63ffffffff8616028152600160a060020a0393841660048201529290911660248301526044820152606401602060405180830381600087803b15801561142157600080fd5b505af1158015611435573d6000803e3d6000fd5b505050506040513d601f19601f820116820180604052508101906114599190611787565b50565b8280546114689061182c565b90600052602060002090601f01602090048101928261148a57600085556114d0565b82601f106114a357805160ff19168380011785556114d0565b828001600101855582156114d0579182015b828111156114d05782518255916020019190600101906114b5565b506114dc9291506114e0565b5090565b5b808211156114dc57600081556001016114e1565b60006020828403121561150757600080fd5b5035919050565b60e060020a634e487b7102600052604160045260246000fd5b600082601f83011261153857600080fd5b813567ffffffffffffffff808211156115535761155361150e565b604051601f8301601f19908116603f0116810190828211818310171561157b5761157b61150e565b8160405283815286602085880101111561159457600080fd5b836020870160208301376000602085830101528094505050505092915050565b6000806000606084860312156115c957600080fd5b833567ffffffffffffffff8111156115e057600080fd5b6115ec86828701611527565b935050602084013591506040840135600160a060020a038116811461161057600080fd5b809150509250925092565b60006020828403121561162d57600080fd5b813567ffffffffffffffff81111561164457600080fd5b61165084828501611527565b949350505050565b6000815180845260005b8181101561167e57602081850181015186830182015201611662565b81811115611690576000602083870101525b50601f01601f19169290920160200192915050565b6020815260006116b86020830184611658565b9392505050565b60e060020a634e487b7102600052602160045260246000fd5b60e060020a634e487b7102600052601260045260246000fd5b600082611700576117006116d8565b500690565b60e060020a634e487b7102600052601160045260246000fd5b600063ffffffff8083168181141561173857611738611705565b6001019392505050565b6000821982111561175557611755611705565b500190565b600082611769576117696116d8565b500490565b60006020828403121561178057600080fd5b5051919050565b60006020828403121561179957600080fd5b815180151581146116b857600080fd5b600061ffff8083168181141561173857611738611705565b600060ff821660ff8114156117d8576117d8611705565b60010192915050565b6060815260006117f46060830186611658565b9050836020830152600160a060020a0383166040830152949350505050565b8281526040602082015260006116506040830184611658565b60028104600182168061184057607f821691505b602082108114156118645760e060020a634e487b7102600052602260045260246000fd5b50919050565b600063ffffffff80841680611881576118816116d8565b9216919091049291505056fea264697066735822122077f72786cd8cd2b09d16641edfe2ad0d2bddc8b387df0d3237298415ed7a97be64736f6c63430008090033a2646970667358221220ed3c1d9f6b54facc07150889b70434bfda063696ce8678ad00a4a4ba8b255b0e64736f6c63430008090033",
  "immutableReferences": {},
  "source": "// SPDX-License-Identifier: GPL-3.0\r\npragma solidity 0.8.9;\r\nimport \"./Crowdsale.sol\";\r\nimport \"./TokenContract.sol\";\r\n\r\ncontract Factory{\r\n    address[] public deployedSales;\r\n    mapping(address=>address) saleToToken;\r\n\r\n    function createSale(string memory _title, string memory _description, uint _target, uint _minimum, string memory _tokenName, \r\n    string memory _tokenSymbol, uint _tokenAmount) external {\r\n        TokenContract token = new TokenContract(_tokenName, _tokenSymbol, _tokenAmount);\r\n        address newCrowdSale = address(new Crowdsale(_title, _description, _target, _minimum, msg.sender, token));\r\n        token.approve(newCrowdSale, _tokenAmount);\r\n        saleToToken[newCrowdSale] = address(token);\r\n        deployedSales.push(newCrowdSale);\r\n    }\r\n    function getDeployedSales() external view returns (address[] memory){\r\n        return deployedSales;\r\n    }\r\n    function getTokenAddress(address _crowdsale) external view returns (address){\r\n        return saleToToken[_crowdsale];\r\n    } \r\n}",
  "sourcePath": "D:\\Projects\\Crowdfunding\\contracts\\Factory.sol",
  "compiler": {
    "name": "solc",
    "version": "0.8.9+commit.e5eed63a.Emscripten.clang"
  },
  "schemaVersion": "3.4.3",
  "updatedAt": "2021-10-29T07:11:35.070Z",
  "devdoc": {
    "kind": "dev",
    "methods": {},
    "version": 1
  },
  "userdoc": {
    "kind": "user",
    "methods": {},
    "version": 1
  }
}